:100000000C945F000C94AB0B0C94D20B0C948700F7
:100010000C9487000C9487000C9487000C94870044
:100020000C9487000C9487000C9487000C94870034
:100030000C9487000C9487000C9487000C94870024
:100040000C94F90B0C9487000C947B0A0C94AD0A69
:100050000C9487000C9487000C9487000C94870004
:100060000C9487000C948700000000080002010037
:100070000003040700000000000000000102040863
:100080001020408001020408102001020408102002
:10009000040404040404040402020202020203032E
:1000A0000303030300000000250028002B000000CC
:1000B0000000240027002A006107DD0A65071124DB
:1000C0001FBECFEFD8E0DEBFCDBF13E0A0E0B1E0B0
:1000D000E8EFFCE102C005900D92AA3DB107D9F707
:1000E00024E0AAEDB3E001C01D92AB3CB207E1F7FA
:1000F00010E0CEE5D0E004C02197FE010E943F0D44
:10010000CC35D107C9F70E940C0B0C946F0E0C94E0
:1001100000000F932FEF87EA91E621508040904036
:10012000E1F700C0000000E02FEF3FEF40E050EBB0
:1001300064E273E08EED93E00E94C50263E08EED11
:1001400093E00E94F5018EED93E00E94A60760E225
:1001500072E081E294E00F910C94600B0F931F9377
:1001600061E084E00E94B20C61E084E00E94EE0C49
:1001700040E855E260E070E081E294E00E94780A95
:1001800065E272E081E294E00E94600B40E251EA95
:1001900067E070E08EED93E00E946907892B39F4E7
:1001A0006DE272E081E294E00E94600BFFCF62E4B6
:1001B00072E081E294E00E94600B0FEF1FEF2FEFDF
:1001C00033E040E050EC62E970E08EED93E00E9495
:1001D0006B058EED93E00E94DE03892BD1F36DE673
:1001E00072E081E294E00E94600B8EED93E00E9449
:1001F0000B02892B91F164E972E081E294E00E94A4
:10020000600B8EED93E00E94E9026115704C82490B
:10021000910509F0A6C08EED93E00E9413020197AC
:1002200009F09FC06CEC72E081E294E00E94600BE8
:1002300000E02FEF3FEF40E050E060E970E08EED2E
:1002400093E00E94C50260E08EED93E00E94F5010C
:100250008EED93E00E94A60706C060EB72E081E29B
:1002600094E00E94600B8EED93E00E94DE03892BE8
:10027000D1F36DE672E081E294E00E94600B8EEDB6
:1002800093E00E940B02892B09F468C064E972E0D4
:1002900081E294E00E94600B8EED93E00E94E902FF
:1002A0006115704C8249910509F05EC08EED93E0B6
:1002B0000E941302029709F057C060E273E081E2E6
:1002C00094E00E94600B00E02FEF3FEF40E050E031
:1002D00060E970E08EED93E00E94C50260910E012E
:1002E00070910F0144E050E08EED93E00E945602C1
:1002F0008EED93E00E94A6072FEF3FEF40E050E025
:1003000060E970E08EED93E00E94C5026091080103
:100310007091090144E050E08EED93E00E94560296
:100320008EED93E00E94A6072FEF3FEF40E050E0F4
:1003300060E970E08EED93E00E94C50260910601D5
:100340007091070144E050E08EED93E00E94560268
:100350008EED93E01F910F910C94A60760EB72E075
:1003600005C06DEE72E07BCF6DEE72E081E294E04D
:100370001F910F910C94600B80E090E00895DC01D8
:10038000ED91FC91028CF38DE02D4FEF57E0099435
:100390000F931F93DC01ED91FC91068CF78DE02DFE
:1003A0000FEF1FEF2FEF3FE109951F910F91089578
:1003B0000895FC0116868FEF9FEFDC018787908BF5
:1003C000A18BB28B148A168A158A108E178A81A384
:1003D00092A3A3A3B4A316A210A617A212A611A6B5
:1003E00014A613A681E090E00895CF93DF931F92A7
:1003F000CDB7DEB76983DC01ED91FC910280F3811A
:10040000E02D41E050E0BE016F5F7F4F09950F90F6
:10041000DF91CF910895FC0181A592A523A534A574
:10042000821B930B0895CF93DF93EC01E881F98150
:100430000084F185E02D0995892B61F08BA59CA5A1
:100440009C012F5F3F4F3CA72BA7C80FD91F8DA53D
:1004500090E002C08FEF9FEFDF91CF910895CF938F
:10046000DF93EC01E881F9810084F185E02D0995A5
:10047000892B39F08BA59CA5C80FD91F8DA590E0BD
:1004800002C08FEF9FEFDF91CF9108950895FC0197
:1004900075876487089580E090E0089580E090E09B
:1004A000089580E090E008950C941B0B0F931F9328
:1004B000CF93DF93FC0126852223E1F02789308D3D
:1004C000E8E0F0E0E21BF30BEA01E417F50708F4BB
:1004D000EF018C01C9014996AE01800F911F0E9466
:1004E000660EF8018789908D8C0F9D1F908F878BEA
:1004F000CE0102C080E090E0DF91CF911F910F917B
:100500000895FC018685882341F0168685899689A1
:1005100097FD06C0908F878B03C080E090E0089520
:1005200081E090E00895FC011382128288EE93E04E
:10053000A0E0B0E084839583A683B7838DE593E044
:10054000918380831586148616868FEF9FEFDC01DA
:100550008787908BA18BB28B21E0238B148A168A1C
:10056000158A108E178A81A392A3A3A3B4A315A200
:1005700016A210A617A212A611A614A613A640E052
:1005800050E0BA01CF010C94720B0F93FC0141159E
:100590005105610580E27807C0F429303105ACF4DB
:1005A00081E086874787508B618B728B838B048BAE
:1005B000368B258B108E178A799688E0DF011D9285
:1005C0008A95E9F781E090E002C080E090E00F9129
:1005D0000895FC0161A172A183A194A108952DE861
:1005E00033E0FC01318320830C94D801CF93DF9357
:1005F000EC010E94EF02CE01DF91CF910C941B0B16
:1006000020911F04222399F04FB7F89420911F04E2
:10061000213059F42DB320931D043DB320911E04C5
:10062000209523232DBB4FBF02C040931D048CBDDA
:100630009DBD08958EBD00000DB407FEFDCF8EB5A3
:10064000089580911F04882361F09FB7F89420914A
:100650001F0480911D04213019F48DBB9FBF0895A4
:100660008FBF0895CF93DF93EC010E9493028DE832
:1006700093E09983888380E58DAB81E08EAB8AE03F
:1006800090E098AF8FAB82E090E09AAF89AF80E0C6
:1006900094E2A4EFB0E08BAF9CAFADAFBEAFDF9103
:1006A000CF910895CF93DF93EC018DA99EA90E946D
:1006B000000360E08FA90E94EE0C80EC0E941A03F8
:1006C00061E08FA90E94EE0C0E9421038AE090E075
:1006D000DF91CF910C94430C1F93CF93DF93EC01E8
:1006E000162F8DA99EA90E94000360E08FA90E9489
:1006F000EE0C83E00E941A03812F0E941A0380E00F
:100700000E941A03182F61E08FA90E94EE0C0E942C
:100710002103812FDF91CF911F9108950F931F9394
:10072000CF93DF93EC016CE20E946C038823A9F065
:10073000E881F9810488F589E02DCE010995892B9E
:1007400061F00C851D85E881F9810084F185E02D3B
:10075000CE010995F8010995EBCFDF91CF911F915B
:100760000F9108958EED93E00C948E03FF920F93FA
:100770001F93CF93DF93EC01F62E042F122F8DA938
:100780009EA90E94000360E08FA90E94EE0C85E004
:100790000E941A038F2D0E941A03802F0E941A03B1
:1007A000812F0E941A0361E08FA90E94EE0CDF9155
:1007B000CF911F910F91FF900C9421039F92AF92C4
:1007C000BF92CF92DF92EF92FF920F931F93CF933E
:1007D000DF93EC016CE20E946C0380FD10C081FD90
:1007E00010C08FEF9FEFDC0189A39AA3ABA3BCA33A
:1007F0001DA21EA21AA619A680E090E0A0C000E0EB
:1008000001C001E0102F1295107F42E6A42EA10E28
:100810006A2DCE010E946C0383FB882780F98DA38B
:1008200061E6610FCE010E946C03C82E6A2DCE01D5
:100830000E946C0398E0C99E600111248295869500
:100840008770C82A8DA10D2C000CEE08FF0855E614
:10085000B52EB10E882389F16A2DCE010E946C035A
:10086000982E63E6610FCE010E946C03A82E64E609
:10087000610FCE010E946C03992D937022E1CC0C84
:10088000DD1CEE1CFF1C2A95D1F7C82AE92A8A2D07
:1008900090E0982F8827A0E0B0E0C82AD92AEA2A59
:1008A000FB2AC9A2DAA2EBA2FCA26B2DCE010E9408
:1008B0006C0386FB882780F90AC0C9A2DAA2EBA2E2
:1008C000FCA26A2DCE010E946C03829581708EA3DA
:1008D0006B2DCE010E946C038F7090E098A78FA3C0
:1008E0001CA61BA62EA1222319F01AA619A61AC00F
:1008F0009AA789A71A596E01EDE2CE0ED11CE12C00
:10090000F12C89A59AA5E816F90664F4612FCE01A9
:100910000E946C03F60181936F01FFEFEF1AFF0A4B
:100920001F5FEFCF41E050E001C0440F0A95EAF7A6
:1009300020E06CE2CE010E94B6038FA198A5DF9162
:10094000CF911F910F91FF90EF90DF90CF90BF90CC
:10095000AF909F9008950F931F93CF93DF93EC0177
:10096000062F142F8DA99EA90E94000360E08FA975
:100970000E94EE0C82E00E941A03802F0E941A034C
:10098000812F0E941A0361E08FA90E94EE0CDF9173
:10099000CF911F910F910C942103CF92DF92EF9290
:1009A000FF920F931F93CF93DF93EC017B018A019A
:1009B00040E86FE00E94AB046FE0CE010E946C0340
:1009C000803809F07DC087E0F822177040E260E6C9
:1009D000CE010E94AB0440E260E6CE010E94AB046F
:1009E000680183E0D594C7948A95E1F74C2D60E2C5
:1009F000CE010E94AB040295000F007E402F61E201
:100A0000CE010E94AB0440E062E2CE010E94AB0442
:100A100040E063E2CE010E94AB0440E260E7CE0119
:100A20000E94AB0440E260E7CE010E94AB044C2D73
:100A300064E2CE010E94AB04402F65E2CE010E9429
:100A4000AB0440E066E2CE010E94AB0440E067E206
:100A5000CE010E94AB04A70193E0559547959A9566
:100A6000E1F7042FE294EE0C20EEE22210E0402F9A
:100A7000612FCE010E94AB0461E0610F4E2DCE01CB
:100A80000E94AB0462E0610F40E0CE010E94AB0423
:100A900063E0610F40E0CE010E94AB041C5F18319F
:100AA00031F740E06FE0CE010E94AB046FE0CE0171
:100AB0000E946C0321E090E0811120E0822F02C0AF
:100AC00080E090E0DF91CF911F910F91FF90EF9028
:100AD000DF90CF9008954F925F926F927F928F92A6
:100AE0009F92AF92BF92CF92DF92EF92FF920F93BD
:100AF0001F93CF93DF9300D000D000D0CDB7DEB7E7
:100B00009E838D834A015B016801790140E86FE0B3
:100B10000E94AB046FE08D819E810E946C0380383F
:100B200009F0BEC08FE1F822D701C60125E1B595D5
:100B3000A795979587952A95D1F789839A83AB8353
:100B4000BC83D701C6013DE0B695A79597958795DB
:100B50003A95D1F780769927AA27BB271E2D1370C7
:100B60001860182B4D2C5E2C6F2C772467FC7A9420
:100B700040E460E68D819E810E94AB0440E460E623
:100B80008D819E810E94AB04498160E28D819E81AE
:100B90000E94AB04412F61E28D819E810E94AB04D3
:100BA000442D62E28D819E810E94AB044C2D63E254
:100BB0008D819E810E94AB0440E460E78D819E811F
:100BC0000E94AB0440E460E78D819E810E94AB04EB
:100BD000498164E28D819E810E94AB04412F65E2D0
:100BE0008D819E810E94AB04442D66E28D819E81A1
:100BF0000E94AB044C2D67E28D819E810E94AB0464
:100C00009FE1B922D501C40155E1B595A795979506
:100C100087955A95D1F7E82E8A2D8370282F286062
:100C2000D501C4016DE0B695A795979587956A950E
:100C3000D1F780769927AA27BB27F22EF82AD92C3C
:100C400010E04E2D612F8D819E810E94AB0461E0EA
:100C5000610F4F2D8D819E810E94AB0462E0610F78
:100C60004D2D8D819E810E94AB0463E0610F482D64
:100C70008D819E810E94AB041C5F183111F740E00A
:100C80006FE08D819E810E94AB046FE08D819E811B
:100C90000E946C0321E090E0811120E0822F02C0CD
:100CA00080E090E026960FB6F894DEBF0FBECDBF71
:100CB000DF91CF911F910F91FF90EF90DF90CF9038
:100CC000BF90AF909F908F907F906F905F904F906C
:100CD0000895CF93DF93EC0140E86FE00E94AB04EE
:100CE0006FE0CE010E946C0321E030E0803811F00B
:100CF00020E030E0C901DF91CF910895CF93DF93D9
:100D0000EC0140E46FE00E94AB046FE0CE010E9472
:100D10006C0321E030E0803411F020E030E0C901C4
:100D2000DF91CF910895CF93DF93EC0141E06FE025
:100D30000E94AB046FE0CE010E946C0321E030E022
:100D4000813011F020E030E0C901DF91CF910895AA
:100D5000CF93DF93EC0140E06FE00E94AB046FE0C3
:100D6000CE010E946C0321E030E0882311F020E0E6
:100D700030E0C901DF91CF9108958F929F92AF9299
:100D8000BF92CF92DF92EF92FF920F931F93CF9378
:100D9000DF93CDB7DEB7C850D1400FB6F894DEBFB1
:100DA0000FBECDBF28E031E0E8E1F1E0DE011196B1
:100DB00001900D9221503040D9F7FC01C3ACD4AC66
:100DC000E5ACF6ACFE01319620E030E08080918009
:100DD000A280B3808C149D04AE04BF0409F054C0FB
:100DE00084809580A680B78084169506A606B706EF
:100DF00009F04AC08C018BE0829F7001839FF00C48
:100E00001124F8E0EF0EF11C81E090E08C0F9D1FA3
:100E1000E80EF91EF70140816AE2C8010E94AB04A6
:100E2000F701418169E2C8010E94AB04F7014281E8
:100E300068E2C8010E94AB0443E06BE2C8010E9473
:100E4000AB0440E06CE0C8010E94AB0440E06DE000
:100E5000C8010E94AB0440E660E6C8010E94AB04F2
:100E600040E660E7C8010E94AB0440E06FE0C801C3
:100E70000E94AB046FE0C8010E946C0321E090E087
:100E8000811120E0822F09C02F5F3F4F3B96283110
:100E9000310509F09BCF80E090E0C85FDE4F0FB6D0
:100EA000F894DEBF0FBECDBFDF91CF911F910F91A0
:100EB000FF90EF90DF90CF90BF90AF909F908F907A
:100EC00008958EED93E00C9432038EED93E00C9434
:100ED000EF02CF92DF92EF92FF92CF93DF93EC017C
:100EE0006A017B010E94D90161E08FA90E94B20CC6
:100EF0000E94BD08CE010E94520340E86FE0CE017F
:100F00000E94AB046FE0CE010E946C03803859F45C
:100F1000B701A601CE01DF91CF91FF90EF90DF9056
:100F2000CF900C94BD0680E090E0DF91CF91FF90D0
:100F3000EF90DF90CF900895CF93DF93EC010E9464
:100F4000F308CE01DF91CF910C944602EF92FF920D
:100F50000F931F93CF93DF93EC010E9481020097C0
:100F600009F4B4C08B894F85588969897A898823A7
:100F7000B9F195E175956795579547959A95D1F78C
:100F800061E3CE010E94AB048F859889A989BA8953
:100F9000AC01BD0122E175956795579547952A9556
:100FA000D1F735E0440F551F661F771F3A95D1F7EB
:100FB0008A2F8370482B486062E3CE010E94AB0405
:100FC0004F85588969897A89452F562F672F77274A
:100FD00067FD7A9563E3CE010E94AB044F8519C08B
:100FE00083E075956795579547958A95D1F761E3A5
:100FF000CE010E94AB044F854295440F407E62E3D0
:10100000CE010E94AB0440E063E3CE010E94AB043A
:1010100040E064E3CE010E94AB048C894F898823B1
:1010200031F0406465E3CE010E94AB041AC065E371
:10103000CE010E94AB047E0189E1E80EF11C00E0C4
:1010400010E08F89988D081719075CF4F70141911A
:101050007F0166E3600FCE010E94AB040F5F1F4F5C
:10106000F0CF48E060E3CE010E94AB0410E060E303
:10107000CE010E946C0383FF10C060E3CE010E948A
:101080006C0384FF07C020E140E16FE0CE010E94C5
:10109000B60311E00E940A0BEACF112331F020E0E1
:1010A00040E16FE0CE010E94B60320E044E06CE234
:1010B000CE010E94B60360E3CE010E946C038077EC
:1010C00031E020E009F030E0832F922FDF91CF91C3
:1010D0001F910F91FF90EF9008950F931F93CF935F
:1010E000DF93EC018B010E94470260E089AD0E9412
:1010F000B20C89AD9AAD012B11F18230910521F02E
:10110000039721F08FEF03C080E001C081E00E94CF
:10111000070989AD9AAD8230910521F0039721F03E
:101120008FEF03C080E001C081E040E050E062EB5F
:1011300073E0DF91CF911F910F910C94790B823066
:10114000910521F0039721F08FEF03C080E001C0EB
:1011500081E00E94990B89AD9AAD8230910521F012
:10116000039721F08FEF03C080E001C081E0DF91A1
:10117000CF911F910F910C942309CF93CFB7F8947F
:1011800080912004811127C0EAE9F0E08491E6E82B
:10119000F0E09491E82FF0E0EE0FFF1FE255FF4FD3
:1011A000A591B491EC91E92321F461E08AE00E94D9
:1011B000EE0C61E08AE00E94B20C8CB580618CBDBF
:1011C0008CB580648CBD61E08DE00E94B20C61E062
:1011D0008BE00E94B20C809120048F5F80932004EA
:1011E000CFBFCF9108959FB7F894809120048823B2
:1011F00019F081508093200480912004811105C052
:101200008CB58F7B8CBD10921F049FBF08959FB734
:10121000F894882349F0813011F482E006C082E01E
:1012200080931F0480E001C081E020911E04822B86
:1012300080931E0480911F04811103C081E080937C
:101240001F049FBF089590911F049230B1F02FB7F3
:10125000F894882321F0813021F482E003C081E0FA
:1012600001C080E0809590911E04892380931E0424
:10127000811102C010921F042FBF0895FC01918DAF
:10128000228D892F90E0805C9F4F821B91098F7384
:1012900099270895FC01918D828D981731F0828DE8
:1012A000E80FF11D858D90E008958FEF9FEF089571
:1012B000FC01918D828D981761F0828DDF01A80F5E
:1012C000B11D5D968C91928D9F5F9F73928F90E080
:1012D00008958FEF9FEF0895FC01538D448D252FC6
:1012E00030E0842F90E0821B930B541710F0CF96C0
:1012F00008950197089583ED9AE0892B49F080E0E5
:1013000090E0892B29F00E94D30A81110C940000EF
:101310000895FC01848DDF01A80FB11DA35ABF4FB2
:101320002C91848D90E001968F739927848FA689E4
:10133000B7892C93A089B1898C9180648C93938D0B
:10134000848D981306C00288F389E02D80818F7DFB
:1013500080830895EF92FF920F931F93CF93DF93B3
:10136000EC0181E0888F9B8D8C8D981305C0E889F6
:10137000F989808185FD24C0F62E0B8D10E00F5F6A
:101380001F4F0F731127E02E8C8DE8120CC00FB683
:1013900007FCFACFE889F989808185FFF5CFCE0176
:1013A0000E948909F1CF8B8DFE01E80FF11DE35AF0
:1013B000FF4FF0820B8FEA89FB898081806207C032
:1013C000EE89FF896083E889F98980818064808360
:1013D00081E090E0DF91CF911F910F91FF90EF900E
:1013E0000895CF93DF93EC01888D8823C9F0EA89B3
:1013F000FB89808185FD05C0A889B9898C9186FD0E
:101400000FC00FB607FCF5CF808185FFF2CFA8890A
:10141000B9898C9185FFEDCFCE010E948909E7CF74
:10142000DF91CF910895CF92DF92EF92FF921F93B9
:10143000CF93DF93EC016A017B01122FE889F989D0
:1014400082E080834115514E61057105B1F060E085
:1014500079E08DE390E0A70196010E941D0DDA016D
:10146000C9010197A109B109B695A79597958795E7
:101470009C01211580E13807A8F0E889F9891082DC
:1014800060E874E88EE190E0A70196010E941D0DCE
:10149000DA01C9010197A109B109B695A7959795F8
:1014A00087959C01EC85FD853083EE85FF85208343
:1014B000188EEC89FD891083EA89FB89808180611F
:1014C0008083EA89FB89808188608083EA89FB893F
:1014D000808180688083EA89FB8980818F7D808319
:1014E000DF91CF911F91FF90EF90DF90CF90089503
:1014F00026E00C94130A1F920F920FB60F9211243C
:101500002F938F939F93EF93FF93E0913104F0918A
:1015100032048081E0913704F091380482FD12C0DA
:10152000908180913A048F5F8F7320913B048217E2
:1015300051F0E0913A04F0E0EF5DFB4F958F80931E
:101540003A0401C08081FF91EF919F918F912F917B
:101550000F900FBE0F901F9018951F920F920FB60D
:101560000F9211242F933F934F935F936F937F9329
:101570008F939F93AF93BF93EF93FF9381E294E098
:101580000E948909FF91EF91BF91AF919F918F9137
:101590007F916F915F914F913F912F910F900FBE6F
:1015A0000F901F90189581E294E00E943E0921E07F
:1015B000892B09F420E0822F0895E1E2F4E0138200
:1015C000128288EE93E0A0E0B0E084839583A68346
:1015D000B7838DEB93E09183808385EC90E09587D2
:1015E000848784EC90E09787868780EC90E0918BED
:1015F000808B81EC90E0938B828B82EC90E0958BDA
:10160000848B86EC90E0978B868B118E128E138ED6
:10161000148E0895089508950E944E0C0E940B0B9D
:101620000E94AE00CBE7D9E00E9489002097E1F349
:101630000E947B09F9CF0C94DD0DCF92DF92EF92DF
:10164000FF920F931F93CF93DF936C017A018B016D
:10165000C0E0D0E0CE15DF0581F0D8016D918D019D
:10166000D601ED91FC910190F081E02DC601099524
:10167000892B11F02196EECF7E01C701DF91CF912A
:101680001F910F91FF90EF90DF90CF90089561151B
:10169000710579F0FB0101900020E9F73197AF0166
:1016A000461B570BDC01ED91FC910280F381E02D8C
:1016B000099480E090E008956BEC73E00C94470B84
:1016C0000F931F93CF93DF93EC010E94470B8C0184
:1016D000CE010E945C0B800F911FDF91CF911F9173
:1016E0000F910895FC0144835583668377830895A1
:1016F00008958230E8F4E82FF0E0EE0FFF1FEC5E73
:10170000FE4F71836083813041F0809169008C7F4E
:10171000482B40936900E89A089580916900837F7F
:10172000440F551F440F551F482B40936900E99AF9
:101730000895823078F4813011F0E89801C0E9987A
:10174000E82FF0E0EE0FFF1FEC5EFE4F88E79BE016
:101750009183808308951F920F920FB60F921124E8
:101760002F933F934F935F936F937F938F939F93A9
:10177000AF93BF93EF93FF93E0911401F0911501A4
:101780000995FF91EF91BF91AF919F918F917F91BB
:101790006F915F914F913F912F910F900FBE0F90DE
:1017A0001F9018951F920F920FB60F9211242F932E
:1017B0003F934F935F936F937F938F939F93AF93D9
:1017C000BF93EF93FF93E0911601F09117010995F4
:1017D000FF91EF91BF91AF919F918F917F916F9109
:1017E0005F914F913F912F910F900FBE0F901F90DF
:1017F00018951F920F920FB60F9211242F933F93BB
:101800008F939F93AF93BF938091BF049091C00437
:10181000A091C104B091C2043091BE0423E0230F13
:101820002D3720F40196A11DB11D05C026E8230F18
:101830000296A11DB11D2093BE048093BF04909316
:10184000C004A093C104B093C2048091C3049091DA
:10185000C404A091C504B091C6040196A11DB11D98
:101860008093C3049093C404A093C504B093C604AA
:10187000BF91AF919F918F913F912F910F900FBE8C
:101880000F901F9018958230910538F0880F991F9E
:10189000880F991F05970197F1F70895789484B5FB
:1018A000826084BD84B5816084BD85B5826085BD5C
:1018B00085B5816085BDEEE6F0E080818160808342
:1018C000E1E8F0E010828081826080838081816025
:1018D0008083E0E8F0E0808181608083E1EBF0E0EC
:1018E000808184608083E0EBF0E080818160808390
:1018F000EAE7F0E080818460808380818260808379
:101900008081816080838081806880831092C100A3
:101910000895833081F028F4813099F08230A1F06D
:1019200008958730A9F08830B9F08430D1F48091DF
:1019300080008F7D03C0809180008F77809380002E
:10194000089584B58F7702C084B58F7D84BD0895D6
:101950008091B0008F7703C08091B0008F7D80931D
:10196000B0000895CF93DF9390E0FC01E458FF4F5F
:101970002491FC01E057FF4F8491882361F190E0AE
:10198000880F991FFC01E255FF4FC591D491FC01CE
:10199000EC55FF4FA591B491611109C09FB7F89420
:1019A0008881209582238883EC912E230BC062309E
:1019B00061F49FB7F8948881322F30958323888310
:1019C000EC912E2B2C939FBF06C08FB7F894E88123
:1019D0002E2B28838FBFDF91CF9108951F93CF9334
:1019E000DF93282F30E0F901E859FF4F8491F90186
:1019F000E458FF4FD491F901E057FF4FC491CC2335
:101A0000C1F0162F81110E94890CEC2FF0E0EE0F2F
:101A1000FF1FEC55FF4FA591B4919FB7F89411119A
:101A200004C08C91D095D82302C0EC91DE2BDC93BE
:101A30009FBFDF91CF911F910895A1E21A2EAA1B9B
:101A4000BB1BFD010DC0AA1FBB1FEE1FFF1FA2176E
:101A5000B307E407F50720F0A21BB30BE40BF50B6B
:101A6000661F771F881F991F1A9469F760957095F4
:101A7000809590959B01AC01BD01CF010895EE0FBB
:101A8000FF1F0590F491E02D09940F931F93CF93BE
:101A9000DF938230910510F482E090E0E091C90478
:101AA000F091CA0420E030E0A0E0B0E0309719F1F6
:101AB000408151810281138148175907C8F084176A
:101AC000950769F4109731F012960C9312971396BC
:101AD0001C9327C00093C9041093CA0422C0211587
:101AE000310519F04217530718F49A01BD01EF01AF
:101AF000DF01F801DBCF21153105F9F0281B390B87
:101B00002430310580F48A819B816115710521F0B3
:101B1000FB019383828304C09093CA048093C90419
:101B2000FE01329644C0FE01E20FF31F81939193B0
:101B300022503109398328833AC02091C70430915B
:101B4000C804232B41F4209102013091030130930A
:101B5000C8042093C7042091000130910101211590
:101B6000310541F42DB73EB7409104015091050174
:101B7000241B350BE091C704F091C804E217F3076A
:101B8000A0F42E1B3F0B2817390778F0AC014E5FED
:101B90005F4F2417350748F04E0F5F1F5093C8045E
:101BA0004093C7048193919302C0E0E0F0E0CF013D
:101BB000DF91CF911F910F910895CF93DF930097FD
:101BC00009F481C0FC01329713821282A091C904EA
:101BD000B091CA04109781F420813181820F931F44
:101BE0002091C7043091C8042817390751F5F093A4
:101BF000C804E093C70467C0ED0120E030E0CE17D1
:101C0000DF0740F44A815B819E0141155105F1F0E7
:101C1000EA01F5CFD383C28340815181840F951FA0
:101C2000C817D90759F488819981840F951F0296A6
:101C3000918380838A819B819383828321153105DF
:101C400029F4F093CA04E093C9043DC0E901FB8381
:101C5000EA8349915991C40FD51FEC17FD0761F430
:101C600080819181840F951F0296E9019983888371
:101C7000828193819B838A83E0E0F0E012968D91CC
:101C80009C911397009719F0FD01DC01F7CF8D911E
:101C90009C9111979D012E5F3F4F820F931F2091C2
:101CA000C7043091C8042817390769F4309729F41C
:101CB0001092CA041092C90402C013821282B09317
:101CC000C804A093C704DF91CF910895FB01DC0104
:101CD00002C001900D9241505040D8F7089510E095
:101CE000CEE5D0E004C0FE010E943F0D2196CF3525
:081CF000D107C9F7F894FFCFFA
:101CF8000000CB042000DA030A010324B00010011D
:101D080024B00001780B780B00127A0040420F00D3
:101D180000800000127A0020A10700009002001243
:101D28007A0090D0030000B10500127A00400D033C
:101D38000000B40600127A0048E8010001B105006D
:101D4800127A00A086010001B40600127A008038D9
:101D5800010001BF0700127A0050C3000003B40657
:101D680000127A00409C000003BF0700127A00208E
:101D78004E000007BF0700127A00102700000FBFAF
:101D88000700127A00881300001FBF070024F40020
:101D980040420F0000D0820024F40020A107000078
:101DA800F0860024F40090D0030041F1850024F46B
:101DB80000400D030001FA870024F40048E8010000
:101DC80003F0860024F400A086010003FA870024AB
:101DD800F4008038010003FF870024F40050C3009A
:101DE8000007FA870024F400409C000007FF8700E2
:101DF80024F400204E00000FFF870024F400102771
:101E080000001FFF870024F400881300003FFF87AD
:101E1800646F6E650043616E20487562005374619B
:101E28007274696E672043616E206661696C6564CF
:101E38002E00457320776972642061756620656994
:101E48006E652043616E204E6163687269636874D1
:101E58002067657761727465742E2E2E0045732095
:101E680077757264652065696E652043414E204E22
:101E7800616368726963687420656D7066616E6716
:101E8800656E2E0043616E204D6573736167652032
:101E9800777572646520656D7066616E67656E0042
:101EA800446120697374207761732066616C736381
:101EB800682067656C617566656E2E0045732077CE
:101EC800757264652064696520485542204944203C
:101ED800616E6765666F72646572742E00456E7414
:101EE800776564657220756E62656B616E6E746588
:101EF8002049442C206F64657220756E62656B61A1
:101F08006E6E746573204B6F6D6D616E646F2E001D
:101F1800457320777572646520646965204944209B
:101F28004C6973746520617566206469652067650E
:101F38006C617573636874207769726420616E6779
:101F480065666F72646572740000000000F50156E2
:101F580002BC0146020B0213022F02D9014602817C
:101F68000251024702BF014B02C8014E0251025101
:101F78000251025102D801540200000000F5015636
:101F880002BC0146020B0213022F0269079C07A636
:101F980007DE036D08BF01CD04C8016B0569067E25
:101FA800069306A806EF02F60200000000AA091D23
:101FB8000B6C09F1093E0958094A090D0A006E61BE
:0A1FC8006E00696E66006F76660019
:00000001FF
