:100000000C945F000C94A30D0C94CA0D0C94870003
:100010000C9487000C9487000C9487000C94870044
:100020000C9487000C9487000C9487000C94870034
:100030000C9487000C9487000C9487000C94870024
:100040000C94F10D0C9487000C94450B0C94770BD9
:100050000C9487000C9487000C9487000C94870004
:100060000C9487000C948700000000080002010037
:100070000003040700000000000000000102040863
:100080001020408001020408102001020408102002
:10009000040404040404040402020202020203032E
:1000A0000303030300000000250028002B000000CC
:1000B0000000240027002A002B08A70B2F0811247A
:1000C0001FBECFEFD8E0DEBFCDBF13E0A0E0B1E0B0
:1000D000E0E0F1E202C005900D92A23EB107D9F72F
:1000E00025E0A2EEB3E001C01D92A132B207E1F714
:1000F00010E0CEE5D0E004C02197FE010E94430F3E
:10010000CC35D107C9F70E94D60B0C9473100C9410
:100110000000CF92DF92EF92FF92CF93DF93FC012A
:10012000EC0128E130E060E070E0CB014991C42EA1
:10013000D12CE12CF12C022E04C0CC0CDD1CEE1CC9
:10014000FF1C0A94D2F76C0D7D1D8E1D9F1D28503B
:100150003109283F4FEF340749F71082118212828C
:100160001382DF91CF91FF90EF90DF90CF900895B1
:10017000CF92DF92EF92FF92362FFC0120E060E0F9
:1001800070E0CB01231751F0C190D190E190F19034
:100190006C297D298E299F292F5FF4CFFF90EF9046
:1001A000DF90CF900895AF92BF92CF92DF92EF92FF
:1001B000FF920F931F93CF93DF9300D000D0CDB762
:1001C000DEB740E855E260E070E087E794E00E9427
:1001D000420B62E172E087E794E00E94330C40E258
:1001E00051EA67E070E084E394E00E943308892BD1
:1001F00039F46BE172E087E794E00E94330CFFCFA3
:1002000060E372E087E794E00E94330C00E010E0C6
:10021000980140E050E060E970E084E394E00E94DF
:1002200035062FEF3FEF40E050EC62E970E084E3E9
:1002300094E00E94850361E084E394E00E94B502AB
:1002400084E394E00E9470086CE472E087E794E035
:100250000E94330C84E394E00E94A804892BD1F31C
:1002600084E394E00E94A90361157105804991051A
:1002700029F484E394E00E94D30206C069E672E0A8
:1002800087E794E00E94330C1092E20384E394E049
:100290000E94A804892B59F084E394E00E94D302C1
:1002A00067E872E087E794E00E94330CEFCF00E04C
:1002B0002FEF3FEF40E050EC62E970E084E394E020
:1002C0000E94850362E084E394E00E94B50284E327
:1002D00094E00E94700860EA72E087E794E00E9470
:1002E000330C10E001E08091E303811139C0143137
:1002F000B8F584E394E00E94A804892BD1F344E08C
:1003000050E0BE016F5F7F4F84E394E00E944B0D8D
:10031000CE0101960E9489006B017C0122E030E051
:10032000AB01BC0187E794E00E94A20CC114D10488
:10033000E104F10449F40093E30365EC72E087E71C
:1003400094E00E94330CCFCF84E0189FF001112479
:10035000EC51FC4FC082D182E282F3821F5FC3CF97
:1003600084EEC82E83E0D82EE12CF12CA12EB12CE6
:10037000AE14BF0484F0F6014191519161917191E5
:100380006F0122E030E087E794E00E94A20CFFEFCB
:10039000EF1AFF0AEDCF68EE72E087E794E00E9463
:1003A000260C4AE050E0612F87E794E00E949B0C06
:1003B0006EEF72E087E794E00E94260C87E794E0F6
:1003C0000E942F0C62E084EE93E00E94B800AB0123
:1003D000BC010FEF1FEF2FEF33E084E394E00E94A6
:1003E00035060F900F900F900F90DF91CF911F91D6
:1003F0000F91FF90EF90DF90CF90BF90AF90089556
:10040000CF93DF9384E394E00E94A804EC01892B4E
:1004100009F46FC061E173E087E794E00E94260C65
:1004200084E394E00E94AF03882331F06BE173E032
:1004300087E794E00E94260C84E394E00E94B203D4
:10044000882331F065E273E087E794E00E94260C90
:100450006AE273E087E794E00E94260C84E394E06C
:100460000E94A903AB01BC0120E130E087E794E0E2
:100470000E94B40C84E394E00E94B203882391F0BC
:100480006CE373E087E794E00E94260C84E394E039
:100490000E94B5034AE050E0BC0187E794E00E9467
:1004A000030D21C063E573E087E794E00E94260C0A
:1004B0004AE050E0BE0187E794E00E94030D84E328
:1004C00094E00E94CB02892B51F084E394E00E94D7
:1004D000D302682F87E794E00E94280CF0CF87E7CB
:1004E00094E00E942F0C87E794E0DF91CF910C9469
:1004F0002F0CDF91CF91089580E090E00895DC010A
:10050000ED91FC91028CF38DE02D4FEF57E00994B3
:100510000F931F93DC01ED91FC91068CF78DE02D7C
:100520000FEF1FEF2FEF3FE109951F910F910895F6
:100530000895FC0116868FEF9FEFDC018787908B73
:10054000A18BB28B148A168A158A108E178A81A302
:1005500092A3A3A3B4A316A210A617A212A611A633
:1005600014A613A681E090E00895CF93DF931F9225
:10057000CDB7DEB76983DC01ED91FC910280F38198
:10058000E02D41E050E0BE016F5F7F4F09950F9075
:10059000DF91CF910895FC0181A592A523A534A5F3
:1005A000821B930B0895CF93DF93EC01E881F981CF
:1005B0000084F185E02D0995892B61F08BA59CA520
:1005C0009C012F5F3F4F3CA72BA7C80FD91F8DA5BC
:1005D00090E002C08FEF9FEFDF91CF910895CF930E
:1005E000DF93EC01E881F9810084F185E02D099524
:1005F000892B39F08BA59CA5C80FD91F8DA590E03C
:1006000002C08FEF9FEFDF91CF9108950895FC0115
:1006100075876487089580E090E0089580E090E019
:10062000089580E090E008950C94E50B0F931F93DC
:10063000CF93DF93FC0126852223E1F02789308DBB
:10064000E8E0F0E0E21BF30BEA01E417F50708F439
:10065000EF018C01C9014996AE01800F911F0E94E4
:100660006A10F8018789908D8C0F9D1F908F878B62
:10067000CE0102C080E090E0DF91CF911F910F91F9
:100680000895FC018685882341F016868589968920
:1006900097FD06C0908F878B03C080E090E008959F
:1006A00081E090E00895FC011382128288EE93E0CD
:1006B000A0E0B0E084839583A683B78384E693E0CB
:1006C000918380831586148616868FEF9FEFDC0159
:1006D0008787908BA18BB28B21E0238B148A168A9B
:1006E000158A108E178A81A392A3A3A3B4A315A27F
:1006F00016A210A617A212A611A614A613A640E0D1
:1007000050E0BA01CF010C94450D0F93FC01411547
:100710005105610580E27807C0F429303105ACF459
:1007200081E086874787508B618B728B838B048B2C
:10073000368B258B108E178A799688E0DF011D9203
:100740008A95E9F781E090E002C080E090E00F91A7
:100750000895FC0161A172A183A194A10895FC01F7
:1007600085A10895FC0186A10895FC0187A190A5AB
:10077000089524E933E0FC01318320830C9498022E
:10078000CF93DF93EC010E94B903CE01DF91CF91AB
:100790000C94E50B20917504222399F04FB7F8943F
:1007A00020917504213059F42DB3209373043DB387
:1007B00020917404209523232DBB4FBF02C040938A
:1007C00073048CBD9DBD08958EBD00000DB407FE61
:1007D000FDCF8EB5089580917504882361F09FB791
:1007E000F8942091750480917304213019F48DBB25
:1007F0009FBF08958FBF0895CF93DF93EC010E94B0
:10080000530384E993E09983888380E58DAB81E08D
:100810008EAB8AE090E098AF8FAB82E090E09AAF29
:1008200089AF80E094E2A4EFB0E08BAF9CAFADAFB6
:10083000BEAFDF91CF910895CF93DF93EC018DA9E7
:100840009EA90E94CA0360E08FA90E94F20E80EC6C
:100850000E94E40361E08FA90E94F20E0E94EB0364
:100860008AE090E0DF91CF910C94470E1F93CF93D5
:10087000DF93EC01162F8DA99EA90E94CA0360E0A8
:100880008FA90E94F20E83E00E94E403812F0E9450
:10089000E40380E00E94E403182F61E08FA90E9426
:1008A000F20E0E94EB03812FDF91CF911F910895EB
:1008B0000F931F93CF93DF93EC016CE20E943604F9
:1008C0008823A9F0E881F9810488F589E02DCE011B
:1008D0000995892B61F00C851D85E881F9810084DB
:1008E000F185E02DCE010995F8010995EBCFDF9157
:1008F000CF911F910F91089584E394E00C945804D4
:10090000FF920F931F93CF93DF93EC01F62E042FEA
:10091000122F8DA99EA90E94CA0360E08FA90E9490
:10092000F20E85E00E94E4038F2D0E94E403802FE5
:100930000E94E403812F0E94E40361E08FA90E94DA
:10094000F20EDF91CF911F910F91FF900C94EB036A
:100950009F92AF92BF92CF92DF92EF92FF920F934E
:100960001F93CF93DF93EC016CE20E94360480FD6D
:1009700010C081FD10C08FEF9FEFDC0189A39AA307
:10098000ABA3BCA31DA21EA21AA619A680E090E0EC
:10099000A0C000E001C001E0102F1295107F42E6D8
:1009A000A42EA10E6A2DCE010E94360483FB882757
:1009B00080F98DA361E6610FCE010E943604C82E36
:1009C0006A2DCE010E94360498E0C99E6001112470
:1009D000829586958770C82A8DA10D2C000CEE0893
:1009E000FF0855E6B52EB10E882389F16A2DCE0198
:1009F0000E943604982E63E6610FCE010E943604F1
:100A0000A82E64E6610FCE010E943604992D9370E2
:100A100022E1CC0CDD1CEE1CFF1C2A95D1F7C82A64
:100A2000E92A8A2D90E0982F8827A0E0B0E0C82A14
:100A3000D92AEA2AFB2AC9A2DAA2EBA2FCA26B2DD0
:100A4000CE010E94360486FB882780F90AC0C9A21D
:100A5000DAA2EBA2FCA26A2DCE010E943604829596
:100A600081708EA36B2DCE010E9436048F7090E0B2
:100A700098A78FA31CA61BA62EA1222319F01AA6A5
:100A800019A61AC09AA789A71A596E01EDE2CE0ECF
:100A9000D11CE12CF12C89A59AA5E816F90664F47D
:100AA000612FCE010E943604F60181936F01FFEFA2
:100AB000EF1AFF0A1F5FEFCF41E050E001C0440F83
:100AC0000A95EAF720E06CE2CE010E9480048FA133
:100AD00098A5DF91CF911F910F91FF90EF90DF903C
:100AE000CF90BF90AF909F9008950F931F93CF9397
:100AF000DF93EC01062F142F8DA99EA90E94CA0333
:100B000060E08FA90E94F20E82E00E94E403802F31
:100B10000E94E403812F0E94E40361E08FA90E94F8
:100B2000F20EDF91CF911F910F910C94EB03CF92B6
:100B3000DF92EF92FF920F931F93CF93DF93EC011D
:100B40007B018A0140E86FE00E9475056FE0CE01ED
:100B50000E943604803809F07DC087E0F8221770C3
:100B600040E260E6CE010E94750540E260E6CE01FB
:100B70000E947505680183E0D594C7948A95E1F7D2
:100B80004C2D60E2CE010E9475050295000F007E9B
:100B9000402F61E2CE010E94750540E062E2CE0185
:100BA0000E94750540E063E2CE010E94750540E2B7
:100BB00060E7CE010E94750540E260E7CE010E9429
:100BC00075054C2D64E2CE010E947505402F65E24B
:100BD000CE010E94750540E066E2CE010E947505D7
:100BE00040E067E2CE010E947505A70193E05595AC
:100BF00047959A95E1F7042FE294EE0C20EEE2225D
:100C000010E0402F612FCE010E94750561E0610F59
:100C10004E2DCE010E94750562E0610F40E0CE01CD
:100C20000E94750563E0610F40E0CE010E947505EA
:100C30001C5F183131F740E06FE0CE010E9475056E
:100C40006FE0CE010E94360421E090E0811120E0A7
:100C5000822F02C080E090E0DF91CF911F910F9131
:100C6000FF90EF90DF90CF9008954F925F926F9238
:100C70007F928F929F92AF92BF92CF92DF92EF922C
:100C8000FF920F931F93CF93DF9300D000D000D03B
:100C9000CDB7DEB79E838D834A015B016801790180
:100CA00040E86FE00E9475056FE08D819E810E9493
:100CB0003604803809F0BEC08FE1F822D701C601A2
:100CC00025E1B595A795979587952A95D1F78983BD
:100CD0009A83AB83BC83D701C6013DE0B695A79547
:100CE000979587953A95D1F780769927AA27BB27BC
:100CF0001E2D13701860182B4D2C5E2C6F2C772432
:100D000067FC7A9440E460E68D819E810E947505BF
:100D100040E460E68D819E810E947505498160E214
:100D20008D819E810E947505412F61E28D819E819A
:100D30000E947505442D62E28D819E810E94750599
:100D40004C2D63E28D819E810E94750540E460E731
:100D50008D819E810E94750540E460E78D819E81B2
:100D60000E947505498164E28D819E810E9475050E
:100D7000412F65E28D819E810E947505442D66E2BA
:100D80008D819E810E9475054C2D67E28D819E812B
:100D90000E9475059FE1B922D501C40155E1B595C1
:100DA000A795979587955A95D1F7E82E8A2D837048
:100DB000282F2860D501C4016DE0B695A7959795B9
:100DC00087956A95D1F780769927AA27BB27F22EB7
:100DD000F82AD92C10E04E2D612F8D819E810E9422
:100DE000750561E0610F4F2D8D819E810E94750513
:100DF00062E0610F4D2D8D819E810E94750563E03B
:100E0000610F482D8D819E810E9475051C5F1831F0
:100E100011F740E06FE08D819E810E9475056FE0C3
:100E20008D819E810E94360421E090E0811120E0B6
:100E3000822F02C080E090E026960FB6F894DEBFC5
:100E40000FBECDBFDF91CF911F910F91FF90EF901B
:100E5000DF90CF90BF90AF909F908F907F906F90DA
:100E60005F904F900895CF93DF93EC0140E86FE0DF
:100E70000E9475056FE0CE010E94360421E030E04B
:100E8000803811F020E030E0C901DF91CF91089562
:100E9000CF93DF93EC0140E46FE00E9475056FE0B3
:100EA000CE010E94360421E030E0803411F020E0D1
:100EB00030E0C901DF91CF910895CF93DF93EC012A
:100EC00041E06FE00E9475056FE0CE010E9436049C
:100ED00021E030E0813011F020E030E0C901DF9105
:100EE000CF910895CF93DF93EC0140E06FE00E9433
:100EF00075056FE0CE010E94360421E030E08823C2
:100F000011F020E030E0C901DF91CF9108958F9278
:100F10009F92AF92BF92CF92DF92EF92FF920F9388
:100F20001F93CF93DF93CDB7DEB7C850D1400FB634
:100F3000F894DEBF0FBECDBF28E031E0EAE0F1E07B
:100F4000DE01119601900D9221503040D9F7FC013D
:100F5000C3ACD4ACE5ACF6ACFE01319620E030E099
:100F600080809180A280B3808C149D04AE04BF0465
:100F700009F054C084809580A680B78084169506B9
:100F8000A606B70609F04AC08C018BE0829F70016B
:100F9000839FF00C1124F8E0EF0EF11C81E090E04B
:100FA0008C0F9D1FE80EF91EF70140816AE2C8010F
:100FB0000E947505F701418169E2C8010E9475052B
:100FC000F701428168E2C8010E94750543E06BE2C7
:100FD000C8010E94750540E06CE0C8010E947505DB
:100FE00040E06DE0C8010E94750540E660E6C8017A
:100FF0000E94750540E660E7C8010E94750540E063
:101000006FE0C8010E9475056FE0C8010E943604B8
:1010100021E090E0811120E0822F09C02F5F3F4F37
:101020003B962831310509F09BCF80E090E0C85F06
:10103000DE4F0FB6F894DEBF0FBECDBFDF91CF916C
:101040001F910F91FF90EF90DF90CF90BF90AF90E6
:101050009F908F90089584E394E00C94FC0384E3C4
:1010600094E00C94B903CF92DF92EF92FF92CF936A
:10107000DF93EC016A017B010E94990261E08FA974
:101080000E94B60E0E948709CE010E941C0440E80F
:101090006FE0CE010E9475056FE0CE010E9436041C
:1010A000803859F4B701A601CE01DF91CF91FF90AE
:1010B000EF90DF90CF900C94870780E090E0DF9175
:1010C000CF91FF90EF90DF90CF900895CF93DF9373
:1010D000EC010E94BD09CE01DF91CF910C94060373
:1010E000EF92FF920F931F93CF93DF93EC010E9437
:1010F0004103009709F4B4C08B894F8558896989E9
:101100007A898823B9F195E1759567955795479543
:101110009A95D1F761E3CE010E9475058F85988974
:10112000A989BA89AC01BD0122E1759567955795EA
:1011300047952A95D1F735E0440F551F661F771F55
:101140003A95D1F78A2F8370482B486062E3CE012D
:101150000E9475054F85588969897A89452F562FD0
:10116000672F772767FD7A9563E3CE010E947505A7
:101170004F8519C083E075956795579547958A9572
:10118000D1F761E3CE010E9475054F854295440F6A
:10119000407E62E3CE010E94750540E063E3CE012C
:1011A0000E94750540E064E3CE010E9475058C89BC
:1011B0004F89882331F0406465E3CE010E947505B4
:1011C0001AC065E3CE010E9475057E0189E1E80E33
:1011D000F11C00E010E08F89988D081719075CF466
:1011E000F70141917F0166E3600FCE010E94750512
:1011F0000F5F1F4FF0CF48E060E3CE010E947505FE
:1012000010E060E3CE010E94360483FF10C060E36B
:10121000CE010E94360484FF07C020E140E16FE068
:10122000CE010E94800411E00E94D40BEACF11236A
:1012300031F020E040E16FE0CE010E94800420E028
:1012400044E06CE2CE010E94800460E3CE010E9483
:101250003604807731E020E009F030E0832F922FD0
:10126000DF91CF911F910F91FF90EF9008950F9311
:101270001F93CF93DF93EC018B010E94070360E083
:1012800089AD0E94B60E89AD9AAD012B11F1823065
:10129000910521F0039721F08FEF03C080E001C09A
:1012A00081E00E94D10989AD9AAD8230910521F08B
:1012B000039721F08FEF03C080E001C081E040E0A0
:1012C00050E06CE774E0DF91CF911F910F910C9487
:1012D000710D8230910521F0039721F08FEF03C04B
:1012E00080E001C081E00E94910D89AD9AAD82300D
:1012F000910521F0039721F08FEF03C080E001C03A
:1013000081E0DF91CF911F910F910C94ED09CF9364
:10131000CFB7F89480917604811127C0EAE9F0E014
:101320008491E6E8F0E09491E82FF0E0EE0FFF1FE3
:10133000E255FF4FA591B491EC91E92321F461E0CE
:101340008AE00E94F20E61E08AE00E94B60E8CB53F
:1013500080618CBD8CB580648CBD61E08DE00E94A5
:10136000B60E61E08BE00E94B60E809176048F5F2E
:1013700080937604CFBFCF9108959FB7F894809162
:101380007604882319F08150809376048091760446
:10139000811105C08CB58F7B8CBD109275049FBFE9
:1013A00008959FB7F894882349F0813011F482E0C2
:1013B00006C082E08093750480E001C081E0209146
:1013C0007404822B8093740480917504811103C08E
:1013D00081E0809375049FBF0895909175049230C9
:1013E000B1F02FB7F894882321F0813021F482E006
:1013F00003C081E001C080E080959091740489234E
:1014000080937404811102C0109275042FBF089557
:10141000FC01918D228D892F90E0805C9F4F821B73
:1014200091098F7399270895FC01918D828D9817EA
:1014300031F0828DE80FF11D858D90E008958FEFDA
:101440009FEF0895FC01918D828D981761F0828D38
:10145000DF01A80FB11D5D968C91928D9F5F9F73E8
:10146000928F90E008958FEF9FEF0895FC01538DC8
:10147000448D252F30E0842F90E0821B930B54176E
:1014800010F0CF960895019708958DE99BE0892B80
:1014900049F080E090E0892B29F00E949D0B81119A
:1014A0000C9400000895FC01848DDF01A80FB11D8C
:1014B000A35ABF4F2C91848D90E001968F7399278A
:1014C000848FA689B7892C93A089B1898C91806477
:1014D0008C93938D848D981306C00288F389E02D38
:1014E00080818F7D80830895EF92FF920F931F93E9
:1014F000CF93DF93EC0181E0888F9B8D8C8D9813C7
:1015000005C0E889F989808185FD24C0F62E0B8D00
:1015100010E00F5F1F4F0F731127E02E8C8DE81224
:101520000CC00FB607FCFACFE889F989808185FFE6
:10153000F5CFCE010E94530AF1CF8B8DFE01E80F4B
:10154000F11DE35AFF4FF0820B8FEA89FB898081FE
:10155000806207C0EE89FF896083E889F98980810C
:101560008064808381E090E0DF91CF911F910F91A3
:10157000FF90EF900895CF93DF93EC01888D88233F
:10158000C9F0EA89FB89808185FD05C0A889B989F0
:101590008C9186FD0FC00FB607FCF5CF808185FFCB
:1015A000F2CFA889B9898C9185FFEDCFCE010E9439
:1015B000530AE7CFDF91CF910895CF92DF92EF9258
:1015C000FF921F93CF93DF93EC016A017B01122FEF
:1015D000E889F98982E080834115514E61057105E2
:1015E000B1F060E079E08DE390E0A70196010E9400
:1015F000210FDA01C9010197A109B109B695A79593
:10160000979587959C01211580E13807A8F0E88916
:10161000F989108260E874E88EE190E0A7019601F4
:101620000E94210FDA01C9010197A109B109B695FC
:10163000A795979587959C01EC85FD853083EE8570
:10164000FF852083188EEC89FD891083EA89FB8948
:10165000808180618083EA89FB89808188608083C2
:10166000EA89FB89808180688083EA89FB8980819F
:101670008F7D8083DF91CF911F91FF90EF90DF905E
:10168000CF90089526E00C94DD0A1F920F920FB6BA
:101690000F9211242F938F939F93EF93FF93E091D9
:1016A0008704F09188048081E0918D04F0918E048C
:1016B00082FD12C09081809190048F5F8F73209182
:1016C0009104821751F0E0919004F0E0E958FB4F4B
:1016D000958F8093900401C08081FF91EF919F913D
:1016E0008F912F910F900FBE0F901F9018951F9202
:1016F0000F920FB60F9211242F933F934F935F9346
:101700006F937F938F939F93AF93BF93EF93FF93C9
:1017100087E794E00E94530AFF91EF91BF91AF9148
:101720009F918F917F916F915F914F913F912F91F9
:101730000F900FBE0F901F90189587E794E00E94BE
:10174000080A21E0892B09F420E0822F0895E7E7B9
:10175000F4E01382128288EE93E0A0E0B0E084838C
:101760009583A683B78384EC93E09183808385EC93
:1017700090E09587848784EC90E09787868780EC5B
:1017800090E0918B808B81EC90E0938B828B82EC4C
:1017900090E0958B848B86EC90E0978B868B118EF6
:1017A000128E138E148E0895089508950E94520E7D
:1017B0000E94D50B0E94D300C5E4DAE00E9400022B
:1017C0002097E1F30E94450AF9CF0C94E10FCF92E4
:1017D000DF92EF92FF920F931F93CF93DF936C01F1
:1017E0007A018B01C0E0D0E0CE15DF0581F0D80191
:1017F0006D918D01D601ED91FC910190F081E02D6C
:10180000C6010995892B11F02196EECF7E01C70103
:10181000DF91CF911F910F91FF90EF90DF90CF90CC
:1018200008956115710579F0FB0101900020E9F739
:101830003197AF01461B570BDC01ED91FC91028003
:10184000F381E02D099480E090E008950C94110C50
:10185000DC01ED91FC910190F081E02D099462EDA5
:1018600073E00C94110C0F931F93CF93DF93EC0153
:101870000E94110C8C01CE010E942F0C800F911F31
:10188000DF91CF911F910F9108958F929F92AF9208
:10189000BF92EF92FF920F931F93CF93DF93CDB739
:1018A000DEB7A1970FB6F894DEBF0FBECDBF7C01A7
:1018B000FA01CB0119A2223008F42AE08E010F5D53
:1018C0001F4F822E912CA12CB12CBF01A501940198
:1018D0000E94210FF901CA01015011096A3010F468
:1018E000605D01C0695CD8016C93232B242B252BF0
:1018F00061F7B801C7010E94110CA1960FB6F894C8
:10190000DEBF0FBECDBFDF91CF911F910F91FF9032
:10191000EF90BF90AF909F908F9008952115310563
:1019200041F4DC01ED91FC910190F081E02D642FF8
:1019300009940C94450C9A01462F50E060E070E049
:101940000C948E0C0F931F93CF93DF93EC010E94A6
:101950008E0C8C01CE010E942F0C800F911FDF9105
:10196000CF911F910F910895CF92DF92EF92FF9246
:101970000F931F93CF93DF932115310581F4DC0181
:10198000ED91FC910190F081E02D642FDF91CF91DA
:101990001F910F91FF90EF90DF90CF9009942A3024
:1019A000310501F577FF1DC06A017B01EC016DE295
:1019B0000E94280C8C0144275527BA014C195D0957
:1019C0006E097F092AE0CE010E94450C800F911F0D
:1019D000DF91CF911F910F91FF90EF90DF90CF900B
:1019E00008952AE0DF91CF911F910F91FF90EF9022
:1019F000DF90CF900C94450C9A01AB01770F660BEA
:101A0000770B0C94B40C0F931F93CF93DF93EC01DF
:101A10000E94FC0C8C01CE010E942F0C800F911FA4
:101A2000DF91CF911F910F9108950F931F93CF9343
:101A3000DF93EC010E943B0E688779878A879B873A
:101A4000E881F9810284F385E02DCE01099597FFA5
:101A500017C00E943B0E088519852A853B85DC014D
:101A6000CB01801B910BA20BB30B0C811D812E812E
:101A70003F8180179107A207B30710F38FEF9FEF05
:101A8000DF91CF911F910F910895FC0144835583FD
:101A9000668377830895CF92DF92EF92FF920F9340
:101AA0001F93CF93DF936C017A018B01C0E0D0E0EC
:101AB000CE15DF0559F0C6010E94150D97FD05C032
:101AC000F80181938F012196F3CF7E01C701DF9149
:101AD000CF911F910F91FF90EF90DF90CF900895DD
:101AE00008958230E8F4E82FF0E0EE0FFF1FEA5F80
:101AF000FE4F71836083813041F0809169008C7F5B
:101B0000482B40936900E89A089580916900837F8B
:101B1000440F551F440F551F482B40936900E99A05
:101B20000895823078F4813011F0E89801C0E99886
:101B3000E82FF0E0EE0FFF1FEA5FFE4F80E79DE029
:101B40009183808308951F920F920FB60F921124F4
:101B50002F933F934F935F936F937F938F939F93B5
:101B6000AF93BF93EF93FF93E0910601F0910701CC
:101B70000995FF91EF91BF91AF919F918F917F91C7
:101B80006F915F914F913F912F910F900FBE0F90EA
:101B90001F9018951F920F920FB60F9211242F933A
:101BA0003F934F935F936F937F938F939F93AF93E5
:101BB000BF93EF93FF93E0910801F091090109951C
:101BC000FF91EF91BF91AF919F918F917F916F9115
:101BD0005F914F913F912F910F900FBE0F901F90EB
:101BE00018951F920F920FB60F9211242F933F93C7
:101BF0008F939F93AF93BF93809115059091160596
:101C0000A0911705B09118053091140523E0230F1A
:101C10002D3720F40196A11DB11D05C026E8230F24
:101C20000296A11DB11D2093140580931505909374
:101C30001605A0931705B09318058091190590918A
:101C40001A05A0911B05B0911C050196A11DB11D9F
:101C50008093190590931A05A0931B05B0931C055A
:101C6000BF91AF919F918F913F912F910F900FBE98
:101C70000F901F9018952FB7F894609115057091EB
:101C8000160580911705909118052FBF0895823091
:101C9000910538F0880F991F880F991F05970197B4
:101CA000F1F70895789484B5826084BD84B581602D
:101CB00084BD85B5826085BD85B5816085BDEEE654
:101CC000F0E0808181608083E1E8F0E01082808133
:101CD00082608083808181608083E0E8F0E08081A1
:101CE00081608083E1EBF0E0808184608083E0EBC1
:101CF000F0E0808181608083EAE7F0E080818460A9
:101D00008083808182608083808181608083808104
:101D1000806880831092C1000895833081F028F498
:101D2000813099F08230A1F008958730A9F0883091
:101D3000B9F08430D1F4809180008F7D03C0809110
:101D400080008F7780938000089584B58F7702C0DC
:101D500084B58F7D84BD08958091B0008F7703C0D6
:101D60008091B0008F7D8093B0000895CF93DF9372
:101D700090E0FC01E458FF4F2491FC01E057FF4F35
:101D80008491882361F190E0880F991FFC01E2554E
:101D9000FF4FC591D491FC01EC55FF4FA591B49133
:101DA000611109C09FB7F8948881209582238883A8
:101DB000EC912E230BC0623061F49FB7F8948881B8
:101DC000322F309583238883EC912E2B2C939FBF49
:101DD00006C08FB7F894E8812E2B28838FBFDF9140
:101DE000CF9108951F93CF93DF93282F30E0F9010F
:101DF000E859FF4F8491F901E458FF4FD491F9015C
:101E0000E057FF4FC491CC23C1F0162F81110E94DF
:101E10008D0EEC2FF0E0EE0FFF1FEC55FF4FA5915C
:101E2000B4919FB7F894111104C08C91D095D82328
:101E300002C0EC91DE2BDC939FBFDF91CF911F910D
:101E40000895A1E21A2EAA1BBB1BFD010DC0AA1FFB
:101E5000BB1FEE1FFF1FA217B307E407F50720F013
:101E6000A21BB30BE40BF50B661F771F881F991F8E
:101E70001A9469F760957095809590959B01AC01D7
:101E8000BD01CF010895EE0FFF1F0590F491E02DE5
:101E900009940F931F93CF93DF938230910510F431
:101EA00082E090E0E0911F05F091200520E030E015
:101EB000A0E0B0E0309719F1408151810281138197
:101EC00048175907C8F08417950769F4109731F03F
:101ED00012960C93129713961C9327C000931F051C
:101EE0001093200522C02115310519F04217530720
:101EF00018F49A01BD01EF01DF01F801DBCF2115D4
:101F00003105F9F0281B390B2430310580F48A8122
:101F10009B816115710521F0FB019383828304C0CD
:101F20009093200580931F05FE01329644C0FE0168
:101F3000E20FF31F81939193225031093983288353
:101F40003AC020911D0530911E05232B41F42091AC
:101F500002013091030130931E0520931D0520914D
:101F60000001309101012115310541F42DB73EB733
:101F70004091040150910501241B350BE0911D0592
:101F8000F0911E05E217F307A0F42E1B3F0B281754
:101F9000390778F0AC014E5F5F4F2417350748F0E2
:101FA0004E0F5F1F50931E0540931D058193919323
:101FB00002C0E0E0F0E0CF01DF91CF911F910F91DF
:101FC0000895CF93DF93009709F481C0FC01329705
:101FD00013821282A0911F05B0912005109781F401
:101FE00020813181820F931F20911D0530911E05A4
:101FF0002817390751F5F0931E05E0931D0567C0BA
:10200000ED0120E030E0CE17DF0740F44A815B812C
:102010009E0141155105F1F0EA01F5CFD383C2834A
:1020200040815181840F951FC817D90759F48881C1
:102030009981840F951F0296918380838A819B8169
:10204000938382832115310529F4F0932005E093D1
:102050001F053DC0E901FB83EA8349915991C40FF3
:10206000D51FEC17FD0761F480819181840F951FC6
:102070000296E90199838883828193819B838A8375
:10208000E0E0F0E012968D919C911397009719F083
:10209000FD01DC01F7CF8D919C9111979D012E5F81
:1020A0003F4F820F931F20911D0530911E05281769
:1020B000390769F4309729F41092200510921F0512
:1020C00002C013821282B0931E05A0931D05DF91FA
:1020D000CF910895FB01DC0102C001900D924150A7
:1020E0005040D8F7089510E0CEE5D0E004C0FE01DE
:1020F0000E94430F2196CF35D107C9F7F894FFCF3F
:10210000000021052000700D700D00127A00404281
:102110000F0000800000127A0020A107000090024A
:1021200000127A0090D0030000B10500127A00403E
:102130000D030000B40600127A0048E8010001B166
:102140000500127A00A086010001B40600127A0090
:102150008038010001BF0700127A0050C30000035D
:10216000B40600127A00409C000003BF0700127AF8
:1021700000204E000007BF0700127A001027000061
:102180000FBF0700127A00881300001FBF0700244A
:10219000F40040420F0000D0820024F40020A10788
:1021A0000000F0860024F40090D0030041F1850087
:1021B00024F400400D030001FA870024F40048E8ED
:1021C000010003F0860024F400A086010003FA87D2
:1021D0000024F4008038010003FF870024F400503D
:1021E000C3000007FA870024F400409C000007FFAA
:1021F000870024F400204E00000FFF870024F40025
:10220000102700001FFF870024F400881300003F00
:10221000FF8743414E204E6F6465005374617274B2
:10222000696E672043414E206661696C65642100D8
:1022300043616E204E6163687269636874207769D8
:10224000726420676573656E6465740043616E2017
:102250004E61636872696368742077757264652083
:10226000676573656E646574004461732050616BCB
:102270006574206861742065696E652066616C73A1
:102280006368652049440044756D6D79204E616333
:10229000687269636874207765676C6573656E0042
:1022A000446965204C6973746520616C6C657220AB
:1022B0007A752062656C6175736368656E64656EBE
:1022C0002049447300556562657274726167756E6A
:1022D000672064657220554944204C6973746520F9
:1022E0006265656E64657400457320777572646518
:1022F0006E20696E73676573616D6D74200020498F
:10230000447320756562657274726167656E2E2014
:102310000052656365697665642000657874656E52
:10232000646564200052545220007061636B6574D0
:1023300020776974682069642030780020616E64B9
:1023400020726571756573746564206C656E677461
:1023500068200020616E64206C656E6774682000E0
:1023600000000000B50216037C020603CB02D30274
:10237000EF02990206034103110307037F020B03D7
:1023800088020E03110311031103110398021403B1
:1023900000000000B50216037C020603CB02D30244
:1023A000EF02330866087008A80437097F02970512
:1023B00088023506330748075D077207B903C00373
:1023C00000000000740AE70B360ABB0A080A220A5A
:1023D000140A0D0A006E616E00696E66006F766603
:0223E0000000FB
:00000001FF
