S01300004E6F64655F4D75737465722E73726563AC
S11300000C945F000C94E80D0C940F0E0C94870074
S11300100C9487000C9487000C9487000C94870040
S11300200C9487000C9487000C9487000C94870030
S11300300C9487000C9487000C9487000C94870020
S11300400C94360E0C9487000C948A0B0C94BC0B05
S11300500C9487000C9487000C9487000C94870000
S11300600C9487000C948700000000080002010033
S1130070000304070000000000000000010204085F
S113008010204080010204081020010204081020FE
S1130090040404040404040402020202020203032A
S11300A00303030300000000250028002B000000C8
S11300B00000240027002A007008EC0B74081124A7
S11300C01FBECFEFD8E0DEBFCDBF14E0A0E0B1E0AB
S11300D0EAE8F1E202C005900D92AE38B107D9F713
S11300E025E0AEE8B4E001C01D92AD3CB207E1F7F3
S11300F010E0CEE5D0E004C02197FE010E94880FF5
S1130100CC35D107C9F70E941B0C0C94B8100C9481
S11301100000CF92DF92EF92FF92CF93DF93FC0126
S1130120EC0128E130E060E070E0CB014991C42E9D
S1130130D12CE12CF12C022E04C0CC0CDD1CEE1CC5
S1130140FF1C0A94D2F76C0D7D1D8E1D9F1D285037
S11301503109283F4FEF340749F710821182128288
S11301601382DF91CF91FF90EF90DF90CF900895AD
S1130170CF92DF92EF92FF92362FFC0120E060E0F5
S113018070E0CB01231751F0C190D190E190F19030
S11301906C297D298E299F292F5FF4CFFF90EF9042
S11301A0DF90CF900895CF92DF92EF92FF92CF939A
S11301B0DF936B017C01C6E8D1E0BA91AA919A91D0
S11301C08A91C816D906EA06FB0670F061E383E259
S11301D095E00E946D0C88819981AA81BB81C81A1F
S11301E0D90AEA0AFB0A05C060E383E295E00E94AB
S11301F06D0C81E0C630D80701F7DF91CF91FF90F5
S1130200EF90DF90CF9008958F929F92AF92BF921C
S1130210CF92DF92EF92FF920F931F93CF93DF93CE
S113022000D000D0CDB7DEB740E855E260E070E022
S113023083E295E00E94870B62E972E083E295E035
S11302400E94780C40E251EA67E070E080EE94E0AE
S11302500E947808892B39F46BE972E083E295E017
S11302600E94780CFFCF60EB72E083E295E00E947D
S1130270780C00E010E0980140E050E060E970E0A4
S113028080EE94E00E947A062FEF3FEF40E050ECBE
S113029062E970E080EE94E00E94CA0361E080EEBF
S11302A094E00E94FA0280EE94E00E94B5086CEC9F
S11302B072E083E295E00E94780C80EE94E00E9464
S11302C0ED04892BD1F380EE94E00E94EE036115D6
S11302D071058049910529F480EE94E00E94180389
S11302E006C069EE72E083E295E00E94780C1092F9
S11302F08E0480EE94E00E94ED04892B59F080EE88
S113030094E00E94180367E073E083E295E00E94A2
S1130310780CEFCF00E02FEF3FEF40E050EC62E9C4
S113032070E080EE94E00E94CA0362E080EE94E004
S11303300E94FA0280EE94E00E94B50860E273E045
S113034083E295E00E94780C10E001E080918F0434
S113035081112FC0143168F580EE94E00E94ED0401
S1130360892BD1F344E050E0BE016F5F7F4F80EEF4
S113037094E00E94900DCE0101960E9489006115BF
S113038071058105910549F400938F0465E473E0D8
S113039083E295E00E94780CD9CF24E0129FF0010B
S11303A01124E057FB4F60837183828393831F5F23
S11303B0CDCF80E9C82E84E0D82EE12CF12CA12EDB
S11303C0B12CAE14BF0454F168E673E083E295E007
S11303D00E946B0C4601F60141915191619171911A
S11303E06F0122E030E083E295E00E94E70C6AE7C7
S11303F073E083E295E00E946B0CF40160817181EB
S1130400828193810E94D3006BEB73E083E295E0D9
S11304100E94780CFFEFEF1AFF0AD3CF64E973E070
S113042083E295E00E946B0C4AE050E0612F83E286
S113043095E00E94E00C6AEA73E083E295E00E9492
S11304406B0C83E295E00E94740C62E080E994E016
S11304500E94B800AB01BC010FEF1FEF2FEF33E098
S113046080EE94E00E947A060F900F900F900F9008
S1130470DF91CF911F910F91FF90EF90DF90CF907C
S1130480BF90AF909F908F900895CF93DF9380EEAD
S113049094E00E94ED04EC01892B09F46FC06DEB2C
S11304A073E083E295E00E946B0C80EE94E00E947E
S11304B0F403882331F067EC73E083E295E00E9453
S11304C06B0C80EE94E00E94F703882331F061ED19
S11304D073E083E295E00E946B0C66ED73E083E2C7
S11304E095E00E946B0C80EE94E00E94EE03AB0159
S11304F0BC0120E130E083E295E00E94F90C80EE3B
S113050094E00E94F703882391F068EE73E083E29D
S113051095E00E946B0C80EE94E00E94FA034AE09E
S113052050E0BC0183E295E00E94480D21C06FEFCA
S113053073E083E295E00E946B0C4AE050E0BE0158
S113054083E295E00E94480D80EE94E00E9410033F
S1130550892B51F080EE94E00E941803682F83E207
S113056095E00E946D0CF0CF83E295E00E94740C3C
S113057083E295E0DF91CF910C94740CDF91CF91DD
S1130580089580E090E00895DC01ED91FC91028CE7
S1130590F38DE02D4FEF57E009940F931F93DC0187
S11305A0ED91FC91068CF78DE02D0FEF1FEF2FEFEF
S11305B03FE109951F910F9108950895FC01168656
S11305C08FEF9FEFDC018787908BA18BB28B148A0E
S11305D0168A158A108E178A81A392A3A3A3B4A3A3
S11305E016A210A617A212A611A614A613A681E09D
S11305F090E00895CF93DF931F92CDB7DEB7698360
S1130600DC01ED91FC910280F381E02D41E050E0AA
S1130610BE016F5F7F4F09950F90DF91CF910895D1
S1130620FC0181A592A523A534A5821B930B0895F3
S1130630CF93DF93EC01E881F9810084F185E02D0B
S11306400995892B61F08BA59CA59C012F5F3F4FD9
S11306503CA72BA7C80FD91F8DA590E002C08FEF30
S11306609FEFDF91CF910895CF93DF93EC01E88161
S1130670F9810084F185E02D0995892B39F08BA54A
S11306809CA5C80FD91F8DA590E002C08FEF9FEFE6
S1130690DF91CF9108950895FC01758764870895CB
S11306A080E090E0089580E090E0089580E090E09C
S11306B008950C942A0C0F931F93CF93DF93FC019E
S11306C026852223E1F02789308DE8E0F0E0E21B63
S11306D0F30BEA01E417F50708F4EF018C01C901F3
S11306E04996AE01800F911F0E94AF10F8018789CF
S11306F0908D8C0F9D1F908F878BCE0102C080E060
S113070090E0DF91CF911F910F910895FC018685B0
S1130710882341F016868589968997FD06C0908FB7
S1130720878B03C080E090E0089581E090E0089515
S1130730FC011382128288EE93E0A0E0B0E084838F
S11307409583A683B78380E194E0918380831586A3
S1130750148616868FEF9FEFDC018787908BA18B21
S1130760B28B21E0238B148A168A158A108E178A7D
S113077081A392A3A3A3B4A315A216A210A617A2A1
S113078012A611A614A613A640E050E0BA01CF01A8
S11307900C948A0D0F93FC0141155105610580E20B
S11307A07807C0F429303105ACF481E086874787A7
S11307B0508B618B728B838B048B368B258B108EC5
S11307C0178A799688E0DF011D928A95E9F781E01E
S11307D090E002C080E090E00F910895FC0161A1D7
S11307E072A183A194A10895FC0185A10895FC013F
S11307F086A10895FC0187A190A5089520E434E022
S1130800FC01318320830C94DD02CF93DF93EC0150
S11308100E94FE03CE01DF91CF910C942A0C20910B
S11308202105222399F04FB7F89420912105213016
S113083059F42DB320931F053DB320912005209535
S113084023232DBB4FBF02C040931F058CBD9DBD0C
S113085008958EBD00000DB407FEFDCF8EB508953A
S113086080912105882361F09FB7F8942091210598
S113087080911F05213019F48DBB9FBF08958FBF50
S11308800895CF93DF93EC010E94980380E494E0F1
S11308909983888380E58DAB81E08EAB8AE090E01C
S11308A098AF8FAB82E090E09AAF89AF80E094E29A
S11308B0A4EFB0E08BAF9CAFADAFBEAFDF91CF91F3
S11308C00895CF93DF93EC018DA99EA90E940F0494
S11308D060E08FA90E94370F80EC0E94290461E038
S11308E08FA90E94370F0E9430048AE090E0DF91C4
S11308F0CF910C948C0E1F93CF93DF93EC01162FA2
S11309008DA99EA90E940F0460E08FA90E94370F51
S113091083E00E942904812F0E94290480E00E9420
S11309202904182F61E08FA90E94370F0E94300418
S1130930812FDF91CF911F9108950F931F93CF9330
S1130940DF93EC016CE20E947B048823A9F0E88128
S1130950F9810488F589E02DCE010995892B61F090
S11309600C851D85E881F9810084F185E02DCE0197
S11309700995F8010995EBCFDF91CF911F910F9164
S1130980089580EE94E00C949D04FF920F931F93BE
S1130990CF93DF93EC01F62E042F122F8DA99EA97D
S11309A00E940F0460E08FA90E94370F85E00E9427
S11309B029048F2D0E942904802F0E942904812F4D
S11309C00E94290461E08FA90E94370FDF91CF9123
S11309D01F910F91FF900C9430049F92AF92BF929D
S11309E0CF92DF92EF92FF920F931F93CF93DF93F7
S11309F0EC016CE20E947B0480FD10C081FD10C0FC
S1130A008FEF9FEFDC0189A39AA3ABA3BCA31DA224
S1130A101EA21AA619A680E090E0A0C000E001C0C2
S1130A2001E0102F1295107F42E6A42EA10E6A2D2C
S1130A30CE010E947B0483FB882780F98DA361E6A5
S1130A40610FCE010E947B04C82E6A2DCE010E9444
S1130A507B0498E0C99E6001112482958695877075
S1130A60C82A8DA10D2C000CEE08FF0855E6B52E02
S1130A70B10E882389F16A2DCE010E947B04982E41
S1130A8063E6610FCE010E947B04A82E64E6610F29
S1130A90CE010E947B04992D937022E1CC0CDD1CC5
S1130AA0EE1CFF1C2A95D1F7C82AE92A8A2D90E06A
S1130AB0982F8827A0E0B0E0C82AD92AEA2AFB2A7E
S1130AC0C9A2DAA2EBA2FCA26B2DCE010E947B0488
S1130AD086FB882780F90AC0C9A2DAA2EBA2FCA28D
S1130AE06A2DCE010E947B04829581708EA36B2DAA
S1130AF0CE010E947B048F7090E098A78FA31CA660
S1130B001BA62EA1222319F01AA619A61AC09AA769
S1130B1089A71A596E01EDE2CE0ED11CE12CF12CFD
S1130B2089A59AA5E816F90664F4612FCE010E94FE
S1130B307B04F60181936F01FFEFEF1AFF0A1F5F39
S1130B40EFCF41E050E001C0440F0A95EAF720E0FE
S1130B506CE2CE010E94C5048FA198A5DF91CF91CC
S1130B601F910F91FF90EF90DF90CF90BF90AF90C7
S1130B709F9008950F931F93CF93DF93EC01062F5B
S1130B80142F8DA99EA90E940F0460E08FA90E94D2
S1130B90370F82E00E942904802F0E942904812FAC
S1130BA00E94290461E08FA90E94370FDF91CF9141
S1130BB01F910F910C943004CF92DF92EF92FF9229
S1130BC00F931F93CF93DF93EC017B018A0140E8DD
S1130BD06FE00E94BA056FE0CE010E947B0480386A
S1130BE009F07DC087E0F822177040E260E6CE018C
S1130BF00E94BA0540E260E6CE010E94BA0568018F
S1130C0083E0D594C7948A95E1F74C2D60E2CE0138
S1130C100E94BA050295000F007E402F61E2CE01CA
S1130C200E94BA0540E062E2CE010E94BA0540E0AB
S1130C3063E2CE010E94BA0540E260E7CE010E9461
S1130C40BA0540E260E7CE010E94BA054C2D64E289
S1130C50CE010E94BA05402F65E2CE010E94BA057A
S1130C6040E066E2CE010E94BA0540E067E2CE01B0
S1130C700E94BA05A70193E0559547959A95E1F727
S1130C80042FE294EE0C20EEE22210E0402F612FBC
S1130C90CE010E94BA0561E0610F4E2DCE010E9483
S1130CA0BA0562E0610F40E0CE010E94BA0563E03C
S1130CB0610F40E0CE010E94BA051C5F183131F784
S1130CC040E06FE0CE010E94BA056FE0CE010E94C1
S1130CD07B0421E090E0811120E0822F02C080E0BB
S1130CE090E0DF91CF911F910F91FF90EF90DF90F3
S1130CF0CF9008954F925F926F927F928F929F92BE
S1130D00AF92BF92CF92DF92EF92FF920F931F9315
S1130D10CF93DF9300D000D000D0CDB7DEB79E8351
S1130D208D834A015B016801790140E86FE00E940C
S1130D30BA056FE08D819E810E947B04803809F0A2
S1130D40BEC08FE1F822D701C60125E1B595A7956C
S1130D50979587952A95D1F789839A83AB83BC832A
S1130D60D701C6013DE0B695A795979587953A9525
S1130D70D1F780769927AA27BB271E2D13701860F8
S1130D80182B4D2C5E2C6F2C772467FC7A9440E44E
S1130D9060E68D819E810E94BA0540E460E68D8103
S1130DA09E810E94BA05498160E28D819E810E94E4
S1130DB0BA05412F61E28D819E810E94BA05442DBE
S1130DC062E28D819E810E94BA054C2D63E28D8181
S1130DD09E810E94BA0540E460E78D819E810E9455
S1130DE0BA0540E460E78D819E810E94BA0549817D
S1130DF064E28D819E810E94BA05412F65E28D8156
S1130E009E810E94BA05442D66E28D819E810E94D6
S1130E10BA054C2D67E28D819E810E94BA059FE13F
S1130E20B922D501C40155E1B595A7959795879544
S1130E305A95D1F7E82E8A2D8370282F2860D50182
S1130E40C4016DE0B695A795979587956A95D1F7F6
S1130E5080769927AA27BB27F22EF82AD92C10E0EE
S1130E604E2D612F8D819E810E94BA0561E0610F34
S1130E704F2D8D819E810E94BA0562E0610F4D2D38
S1130E808D819E810E94BA0563E0610F482D8D819A
S1130E909E810E94BA051C5F183111F740E06FE093
S1130EA08D819E810E94BA056FE08D819E810E9492
S1130EB07B0421E090E0811120E0822F02C080E0D9
S1130EC090E026960FB6F894DEBF0FBECDBFDF913B
S1130ED0CF911F910F91FF90EF90DF90CF90BF9033
S1130EE0AF909F908F907F906F905F904F900895F8
S1130EF0CF93DF93EC0140E86FE00E94BA056FE006
S1130F00CE010E947B0421E030E0803811F020E023
S1130F1030E0C901DF91CF910895CF93DF93EC01C5
S1130F2040E46FE00E94BA056FE0CE010E947B04AA
S1130F3021E030E0803411F020E030E0C901DF919D
S1130F40CF910895CF93DF93EC0141E06FE00E94CD
S1130F50BA056FE0CE010E947B0421E030E08130CD
S1130F6011F020E030E0C901DF91CF910895CF93D3
S1130F70DF93EC0140E06FE00E94BA056FE0CE0120
S1130F800E947B0421E030E0882311F020E030E06F
S1130F90C901DF91CF9108958F929F92AF92BF9232
S1130FA0CF92DF92EF92FF920F931F93CF93DF9331
S1130FB0CDB7DEB7C850D1400FB6F894DEBF0FBE30
S1130FC0CDBF28E031E0EAE8F1E0DE0111960190BE
S1130FD00D9221503040D9F7FC01C3ACD4ACE5AC40
S1130FE0F6ACFE01319620E030E080809180A28052
S1130FF0B3808C149D04AE04BF0409F054C08480F3
S11310009580A680B78084169506A606B70609F0D3
S11310104AC08C018BE0829F7001839FF00C1124E5
S1131020F8E0EF0EF11C81E090E08C0F9D1FE80EBC
S1131030F91EF70140816AE2C8010E94BA05F7016E
S1131040418169E2C8010E94BA05F701428168E260
S1131050C8010E94BA0543E06BE2C8010E94BA05C8
S113106040E06CE0C8010E94BA0540E06DE0C801B0
S11310700E94BA0540E660E6C8010E94BA0540E64F
S113108060E7C8010E94BA0540E06FE0C8010E9411
S1131090BA056FE0C8010E947B0421E090E0811151
S11310A020E0822F09C02F5F3F4F3B962831310546
S11310B009F09BCF80E090E0C85FDE4F0FB6F89454
S11310C0DEBF0FBECDBFDF91CF911F910F91FF9077
S11310D0EF90DF90CF90BF90AF909F908F90089546
S11310E080EE94E00C94410480EE94E00C94FE03B2
S11310F0CF92DF92EF92FF92CF93DF93EC016A01DC
S11311007B010E94DE0261E08FA90E94FB0E0E9417
S1131110CC09CE010E94610440E86FE0CE010E9438
S1131120BA056FE0CE010E947B04803859F4B70100
S1131130A601CE01DF91CF91FF90EF90DF90CF9089
S11311400C94CC0780E090E0DF91CF91FF90EF907A
S1131150DF90CF900895CF93DF93EC010E94020AB1
S1131160CE01DF91CF910C944B03EF92FF920F933A
S11311701F93CF93DF93EC010E948603009709F439
S1131180B4C08B894F85588969897A898823B9F1D4
S113119095E175956795579547959A95D1F761E3CC
S11311A0CE010E94BA058F859889A989BA89AC01B4
S11311B0BD0122E175956795579547952A95D1F715
S11311C035E0440F551F661F771F3A95D1F78A2FD4
S11311D08370482B486062E3CE010E94BA054F85B4
S11311E0588969897A89452F562F672F772767FD94
S11311F07A9563E3CE010E94BA054F8519C083E056
S113120075956795579547958A95D1F761E3CE0112
S11312100E94BA054F854295440F407E62E3CE0199
S11312200E94BA0540E063E3CE010E94BA0540E0A3
S113123064E3CE010E94BA058C894F89882331F07A
S1131240406465E3CE010E94BA051AC065E3CE018D
S11312500E94BA057E0189E1E80EF11C00E010E06D
S11312608F89988D081719075CF4F70141917F0164
S113127066E3600FCE010E94BA050F5F1F4FF0CFE7
S113128048E060E3CE010E94BA0510E060E3CE01BD
S11312900E947B0483FF10C060E3CE010E947B04A4
S11312A084FF07C020E140E16FE0CE010E94C50445
S11312B011E00E94190CEACF112331F020E040E143
S11312C06FE0CE010E94C50420E044E06CE2CE0150
S11312D00E94C50460E3CE010E947B04807731E064
S11312E020E009F030E0832F922FDF91CF911F91FE
S11312F00F91FF90EF9008950F931F93CF93DF9377
S1131300EC018B010E944C0360E089AD0E94FB0E4E
S113131089AD9AAD012B11F18230910521F003972B
S113132021F08FEF03C080E001C081E00E94160A23
S113133089AD9AAD8230910521F0039721F08FEFAA
S113134003C080E001C081E040E050E061EC74E063
S1131350DF91CF911F910F910C94B60D82309105BE
S113136021F0039721F08FEF03C080E001C081E0FA
S11313700E94D60D89AD9AAD8230910521F0039774
S113138021F08FEF03C080E001C081E0DF91CF91B5
S11313901F910F910C94320ACF93CFB7F894809198
S11313A02205811127C0EAE9F0E08491E6E8F0E043
S11313B09491E82FF0E0EE0FFF1FE255FF4FA59147
S11313C0B491EC91E92321F461E08AE00E94370FA3
S11313D061E08AE00E94FB0E8CB580618CBD8CB507
S11313E080648CBD61E08DE00E94FB0E61E08BE0C7
S11313F00E94FB0E809122058F5F80932205CFBF50
S1131400CF9108959FB7F89480912205882319F00D
S113141081508093220580912205811105C08CB5ED
S11314208F7B8CBD109221059FBF08959FB7F894C0
S1131430882349F0813011F482E006C082E0809371
S1131440210580E001C081E020912005822B80935A
S1131450200580912105811103C081E0809321053D
S11314609FBF0895909121059230B1F02FB7F89461
S1131470882321F0813021F482E003C081E001C09F
S113148080E0809590912005892380932005811127
S113149002C0109221052FBF0895FC01918D228D69
S11314A0892F90E0805C9F4F821B91098F7399274D
S11314B00895FC01918D828D981731F0828DE80F8B
S11314C0F11D858D90E008958FEF9FEF0895FC0145
S11314D0918D828D981761F0828DDF01A80FB11D67
S11314E05D968C91928D9F5F9F73928F90E008958B
S11314F08FEF9FEF0895FC01538D448D252F30E02D
S1131500842F90E0821B930B541710F0CF9608950C
S11315100197089582EE9BE0892B49F080E090E0EA
S1131520892B29F00E94E20B81110C94000008958C
S1131530FC01848DDF01A80FB11DA35ABF4F2C916C
S1131540848D90E001968F739927848FA689B7893B
S11315502C93A089B1898C9180648C93938D848D14
S1131560981306C00288F389E02D80818F7D8083E3
S11315700895EF92FF920F931F93CF93DF93EC01A3
S113158081E0888F9B8D8C8D981305C0E889F9893B
S1131590808185FD24C0F62E0B8D10E00F5F1F4F58
S11315A00F731127E02E8C8DE8120CC00FB607FCC8
S11315B0FACFE889F989808185FFF5CFCE010E94B1
S11315C0980AF1CF8B8DFE01E80FF11DE35AFF4F0E
S11315D0F0820B8FEA89FB898081806207C0EE89E3
S11315E0FF896083E889F98980818064808381E050
S11315F090E0DF91CF911F910F91FF90EF900895AC
S1131600CF93DF93EC01888D8823C9F0EA89FB89A5
S1131610808185FD05C0A889B9898C9186FD0FC09C
S11316200FB607FCF5CF808185FFF2CFA889B98971
S11316308C9185FFEDCFCE010E94980AE7CFDF9110
S1131640CF910895CF92DF92EF92FF921F93CF93A1
S1131650DF93EC016A017B01122FE889F98982E0AA
S113166080834115514E61057105B1F060E079E068
S11316708DE390E0A70196010E94660FDA01C9018B
S11316800197A109B109B695A795979587959C01EE
S1131690211580E13807A8F0E889F989108260E80B
S11316A074E88EE190E0A70196010E94660FDA01CA
S11316B0C9010197A109B109B695A7959795879591
S11316C09C01EC85FD853083EE85FF852083188E93
S11316D0EC89FD891083EA89FB898081806180839C
S11316E0EA89FB89808188608083EA89FB8980811B
S11316F080688083EA89FB8980818F7D8083DF9184
S1131700CF911F91FF90EF90DF90CF90089526E046
S11317100C94220B1F920F920FB60F9211242F9349
S11317208F939F93EF93FF93E0913305F0913405EA
S11317308081E0913905F0913A0582FD12C09081D3
S113174080913C058F5F8F7320913D05821751F086
S1131750E0913C05F0E0ED5DFA4F958F80933C05F8
S113176001C08081FF91EF919F918F912F910F90F4
S11317700FBE0F901F9018951F920F920FB60F92E5
S113178011242F933F934F935F936F937F938F9382
S11317909F93AF93BF93EF93FF9383E295E00E94EF
S11317A0980AFF91EF91BF91AF919F918F917F9193
S11317B06F915F914F913F912F910F900FBE0F90BA
S11317C01F90189583E295E00E944D0A21E0892B31
S11317D009F420E0822F0895E3E2F5E013821282F7
S11317E088EE93E0A0E0B0E084839583A683B7837A
S11317F080E794E09183808385EC90E095878487EB
S113180084EC90E09787868780EC90E0918B808BC6
S113181081EC90E0938B828B82EC90E0958B848BAF
S113182086EC90E0978B868B118E128E138E148E1D
S11318300895089508950E94970E0E941A0C0E941C
S11318400401CAE8DAE00E9445022097E1F30E940D
S11318508A0AF9CF0C942610CF92DF92EF92FF926E
S11318600F931F93CF93DF936C017A018B01C0E038
S1131870D0E0CE15DF0581F0D8016D918D01D60140
S1131880ED91FC910190F081E02DC6010995892B21
S113189011F02196EECF7E01C701DF91CF911F9108
S11318A00F91FF90EF90DF90CF900895611571052F
S11318B079F0FB0101900020E9F73197AF01461B55
S11318C0570BDC01ED91FC910280F381E02D09942A
S11318D080E090E008950C94560CDC01ED91FC91AD
S11318E00190F081E02D09946EE774E00C94560C9D
S11318F00F931F93CF93DF93EC010E94560C8C013E
S1131900CE010E94740C800F911FDF91CF911F9123
S11319100F9108958F929F92AF92BF92EF92FF9290
S11319200F931F93CF93DF93CDB7DEB7A1970FB675
S1131930F894DEBF0FBECDBF7C01FA01CB0119A222
S1131940223008F42AE08E010F5D1F4F822E912C65
S1131950A12CB12CBF01A50194010E94660FF901CD
S1131960CA01015011096A3010F4605D01C0695C5C
S1131970D8016C93232B242B252B61F7B801C701C5
S11319800E94560CA1960FB6F894DEBF0FBECDBFD1
S1131990DF91CF911F910F91FF90EF90BF90AF9087
S11319A09F908F9008952115310541F4DC01ED914C
S11319B0FC910190F081E02D642F09940C948A0C21
S11319C09A01462F50E060E070E00C94D30C0F9322
S11319D01F93CF93DF93EC010E94D30C8C01CE01B3
S11319E00E94740C800F911FDF91CF911F910F9172
S11319F00895CF92DF92EF92FF920F931F93CF93AC
S1131A00DF932115310581F4DC01ED91FC91019006
S1131A10F081E02D642FDF91CF911F910F91FF9002
S1131A20EF90DF90CF9009942A30310501F577FFCC
S1131A301DC06A017B01EC016DE20E946D0C8C01FA
S1131A4044275527BA014C195D096E097F092AE01C
S1131A50CE010E948A0C800F911FDF91CF911F91BC
S1131A600F91FF90EF90DF90CF9008952AE0DF91DF
S1131A70CF911F910F91FF90EF90DF90CF900C9436
S1131A808A0C9A01AB01770F660B770B0C94F90C57
S1131A900F931F93CF93DF93EC010E94410D8C01B0
S1131AA0CE010E94740C800F911FDF91CF911F9182
S1131AB00F9108950F931F93CF93DF93EC010E942E
S1131AC0800E688779878A879B87E881F9810284F9
S1131AD0F385E02DCE01099597FF17C00E94800E73
S1131AE0088519852A853B85DC01CB01801B910B78
S1131AF0A20BB30B0C811D812E813F8180179107AE
S1131B00A207B30710F38FEF9FEFDF91CF911F91DF
S1131B100F910895FC014483558366837783089568
S1131B20CF92DF92EF92FF920F931F93CF93DF93A5
S1131B306C017A018B01C0E0D0E0CE15DF0559F0CD
S1131B40C6010E945A0D97FD05C0F80181938F01CB
S1131B502196F3CF7E01C701DF91CF911F910F91A1
S1131B60FF90EF90DF90CF90089508958230E8F4CD
S1131B70E82FF0E0EE0FFF1FEA57FE4F71836083FA
S1131B80813041F0809169008C7F482B409369003B
S1131B90E89A089580916900837F440F551F440F8C
S1131BA0551F482B40936900E99A0895823078F4D0
S1131BB0813011F0E89801C0E998E82FF0E0EE0FC9
S1131BC0FF1FEA57FE4F85EB9DE0918380830895C4
S1131BD01F920F920FB60F9211242F933F934F939E
S1131BE05F936F937F938F939F93AF93BF93EF9381
S1131BF0FF93E0918601F09187010995FF91EF91A0
S1131C00BF91AF919F918F917F916F915F914F9110
S1131C103F912F910F900FBE0F901F9018951F9218
S1131C200F920FB60F9211242F933F934F935F930C
S1131C306F937F938F939F93AF93BF93EF93FF9390
S1131C40E0918801F09189010995FF91EF91BF918D
S1131C50AF919F918F917F916F915F914F913F9140
S1131C602F910F900FBE0F901F9018951F920F92F7
S1131C700FB60F9211242F933F938F939F93AF939B
S1131C80BF938091C1059091C205A091C305B09105
S1131C90C4053091C00523E0230F2D3720F40196AD
S1131CA0A11DB11D05C026E8230F0296A11DB11D7B
S1131CB02093C0058093C1059093C205A093C305EA
S1131CC0B093C4058091C5059091C605A091C70540
S1131CD0B091C8050196A11DB11D8093C5059093CF
S1131CE0C605A093C705B093C805BF91AF919F9156
S1131CF08F913F912F910F900FBE0F901F901895C9
S1131D002FB7F8946091C1057091C2058091C30505
S1131D109091C4052FBF08958230910538F0880F43
S1131D20991F880F991F05970197F1F708957894E3
S1131D3084B5826084BD84B5816084BD85B58260CC
S1131D4085BD85B5816085BDEEE6F0E0808181606A
S1131D508083E1E8F0E0108280818260808380816A
S1131D6081608083E0E8F0E0808181608083E1EB42
S1131D70F0E0808184608083E0EBF0E0808181602A
S1131D808083EAE7F0E080818460808380818260E0
S1131D9080838081816080838081806880831092C9
S1131DA0C1000895833081F028F4813099F08230A5
S1131DB0A1F008958730A9F08830B9F08430D1F4C7
S1131DC0809180008F7D03C0809180008F77809305
S1131DD08000089584B58F7702C084B58F7D84BD5B
S1131DE008958091B0008F7703C08091B0008F7DFB
S1131DF08093B0000895CF93DF9390E0FC01E45802
S1131E00FF4F2491FC01E057FF4F8491882361F137
S1131E1090E0880F991FFC01E255FF4FC591D491C2
S1131E20FC01EC55FF4FA591B491611109C09FB716
S1131E30F8948881209582238883EC912E230BC00B
S1131E40623061F49FB7F8948881322F30958323F0
S1131E508883EC912E2B2C939FBF06C08FB7F894E8
S1131E60E8812E2B28838FBFDF91CF9108951F9394
S1131E70CF93DF93282F30E0F901E859FF4F849185
S1131E80F901E458FF4FD491F901E057FF4FC49191
S1131E90CC23C1F0162F81110E94D20EEC2FF0E05A
S1131EA0EE0FFF1FEC55FF4FA591B4919FB7F89427
S1131EB0111104C08C91D095D82302C0EC91DE2B73
S1131EC0DC939FBFDF91CF911F910895A1E21A2E59
S1131ED0AA1BBB1BFD010DC0AA1FBB1FEE1FFF1FCA
S1131EE0A217B307E407F50720F0A21BB30BE40B1A
S1131EF0F50B661F771F881F991F1A9469F7609561
S1131F007095809590959B01AC01BD01CF0108951A
S1131F10EE0FFF1F0590F491E02D09940F931F938A
S1131F20CF93DF938230910510F482E090E0E0914A
S1131F30CB05F091CC0520E030E0A0E0B0E0309794
S1131F4019F1408151810281138148175907C8F062
S1131F508417950769F4109731F012960C93129731
S1131F6013961C9327C00093CB051093CC0522C075
S1131F702115310519F04217530718F49A01BD01D0
S1131F80EF01DF01F801DBCF21153105F9F0281B42
S1131F90390B2430310580F48A819B8161157105E8
S1131FA021F0FB019383828304C09093CC0580933A
S1131FB0CB05FE01329644C0FE01E20FF31F81936C
S1131FC0919322503109398328833AC02091C9055D
S1131FD03091CA05232B41F4209102013091030171
S1131FE03093CA052093C905209100013091010165
S1131FF02115310541F42DB73EB7409104015091AC
S11320000501241B350BE091C905F091CA05E217BF
S1132010F307A0F42E1B3F0B2817390778F0AC0107
S11320204E5F5F4F2417350748F04E0F5F1F5093E4
S1132030CA054093C9058193919302C0E0E0F0E0A2
S1132040CF01DF91CF911F910F910895CF93DF932B
S1132050009709F481C0FC01329713821282A09187
S1132060CB05B091CC05109781F420813181820F8A
S1132070931F2091C9053091CA052817390751F5D6
S1132080F093CA05E093C90567C0ED0120E030E094
S1132090CE17DF0740F44A815B819E01411551054B
S11320A0F1F0EA01F5CFD383C28340815181840FDB
S11320B0951FC817D90759F488819981840F951FF2
S11320C00296918380838A819B81938382832115E5
S11320D0310529F4F093CC05E093CB053DC0E9012B
S11320E0FB83EA8349915991C40FD51FEC17FD076F
S11320F061F480819181840F951F0296E90199838F
S11321008883828193819B838A83E0E0F0E0129646
S11321108D919C911397009719F0FD01DC01F7CF85
S11321208D919C9111979D012E5F3F4F820F931FBC
S11321302091C9053091CA052817390769F43097E9
S113214029F41092CC051092CB0502C0138212829E
S1132150B093CA05A093C905DF91CF910895FB01FF
S1132160DC0102C001900D9241505040D8F708950F
S113217010E0CEE5D0E004C0FE010E94880F219655
S10D2180CF35D107C9F7F894FFCF5B
S113218A0000CD0520000100000002000000040048
S113219A00000800000010000000200000004000B9
S11321AA000080000000000100000002000000049A
S11321BA0000000800000010000000200000004099
S11321CA000000800000000001000000020000007E
S11321DA04000000080000001000000020000000B5
S11321EA400000008000000000010000000200001E
S11321FA0004000000080000001000000020000095
S113220A004000000080B50DB50D00127A0040426E
S113221A0F0000800000127A0020A107000090023B
S113222A00127A0090D0030000B10500127A00402F
S113223A0D030000B40600127A0048E8010001B157
S113224A0500127A00A086010001B40600127A0081
S113225A8038010001BF0700127A0050C30000034E
S113226AB40600127A00409C000003BF0700127AE9
S113227A00204E000007BF0700127A001027000052
S113228A0FBF0700127A00881300001FBF0700243B
S113229AF40040420F0000D0820024F40020A10779
S11322AA0000F0860024F40090D0030041F1850078
S11322BA24F400400D030001FA870024F40048E8DE
S11322CA010003F0860024F400A086010003FA87C3
S11322DA0024F4008038010003FF870024F400502E
S11322EAC3000007FA870024F400409C000007FF9B
S11322FA870024F400204E00000FFF870024F40016
S113230A102700001FFF870024F400881300003FF1
S113231AFF8743414E204E6F6465005374617274A3
S113232A696E672043414E206661696C65642100C9
S113233A43616E204E6163687269636874207769C9
S113234A726420676573656E6465740043616E2008
S113235A4E61636872696368742077757264652074
S113236A676573656E646574004461732050616BBC
S113237A6574206861742065696E652066616C7392
S113238A6368652049440044756D6D79204E616324
S113239A687269636874207765676C6573656E0033
S11323AA446965204C6973746520616C6C6572209C
S11323BA7A752062656C6175736368656E64656EAF
S11323CA2049447300556562657274726167756E5B
S11323DA672064657220554944204C6973746520EA
S11323EA6265656E64657400417573676162652030
S11323FA41726475696E6F3A200041757367616250
S113240A6520656967656E652046756E6B74696FCC
S113241A6E3A200045732077757264656E20696E82
S113242A73676573616D6D74200020494473207568
S113243A6562657274726167656E2E200052656307
S113244A65697665642000657874656E64656420E0
S113245A0052545220007061636B6574207769746A
S113246A682069642030780020616E642072657186
S113247A756573746564206C656E677468200020E2
S113248A616E64206C656E67746820000000000049
S113249AFA025B03C1024B03100318033403DE027E
S11324AA4B03860356034C03C4025003CD02530361
S11324BA5603560356035603DD025903000000006F
S11324CAFA025B03C1024B031003180334037808AE
S11324DAAB08B508ED047C09C402DC05CD027A0612
S11324EA78078D07A207B707FE030504000000005A
S11324FAB90A2C0C7B0A000B4D0A670A590A0D0A01
S111250A006E616E00696E66006F76660000FA
S9030000FC
