:100000000C94A0000C941B120C9442120C94C80087
:100010000C94C8000C94C8000C94C8000C94C80040
:100020000C94C8000C94C8000C94C8000C94C80030
:100030000C94C8000C94C8000C94C8000C94C80020
:100040000C9469120C94C8000C94BD0F0C94EF0F23
:100050000C94C8000C94C8000C94C8000C94C80000
:100060000C94C8000C94C80007634236B79BD8A70D
:100070001A39685618AEBAAB558C1D3CB7CC5763CD
:10008000BD6DEDFD753EF6177231BF000000803F7B
:1000900008000000BE922449123EABAAAA2ABECD97
:1000A000CCCC4C3E00000080BEABAAAAAA3E000009
:1000B0000000BF000000803F000000000008417801
:1000C000D3BB4387D1133D190E3CC3BD4282AD2B38
:1000D0003E68EC8276BED98FE1A93E4C80EFFFBE30
:1000E00001C4FF7F3F000000000000000008000284
:1000F00001000003040700000000000000000102EE
:1001000004081020408001020408102001020408A5
:100110001020040404040404040402020202020283
:1001200003030303030300000000250028002B0045
:1001300000000000240027002A00EC081F10F0082F
:1001400011241FBECFEFD8E0DEBFCDBF14E0A0E08A
:10015000B1E0E0EFF9E202C005900D92AE30B107D8
:10016000D9F725E0AEE0B4E001C01D92AD34B2078E
:10017000E1F710E0CFE9D0E004C02197FE010E9432
:10018000BB13CD39D107C9F70E944E100C94EB1464
:100190000C940000DC01ED91FC910190F081E02DC8
:1001A0000994CF92DF92EF92FF92CF93DF93FC01FD
:1001B000EC0128E130E060E070E0CB014991C42E11
:1001C000D12CE12CF12C022E04C0CC0CDD1CEE1C39
:1001D000FF1C0A94D2F76C0D7D1D8E1D9F1D2850AB
:1001E0003109283F4FEF340749F7108211821282FC
:1001F0001382DF91CF91FF90EF90DF90CF90089521
:10020000CF92DF92EF92FF92362FFC0120E060E068
:1002100070E0CB01231751F0C190D190E190F190A3
:100220006C297D298E299F292F5FF4CFFF90EF90B5
:10023000DF90CF9008954F925F926F927F928F924E
:100240009F92AF92BF92CF92DF92EF92FF92CF93A5
:10025000DF936B017C01CFE1D0E0209749F481E08E
:10026000C816D104E104F10499F561E370E032C0ED
:10027000C701B6010E94650B4B015C01BE010D2E4A
:10028000000C880B990B0E94670B9B01AC0160E08E
:1002900070E080E090E40E94F80B2B013C019B0190
:1002A000AC01C501B4010E94F30B87FD11C061E3ED
:1002B00070E083EA94E00E94CA00A3019201C501A4
:1002C000B4010E94C90A0E94360B6B017C0106C072
:1002D00060E370E083EA94E00E94CA00219708F08E
:1002E000BCCFDF91CF91FF90EF90DF90CF90BF9088
:1002F000AF909F908F907F906F905F904F900895F8
:100300008F929F92AF92BF92CF92DF92EF92FF9225
:100310000F931F93CF93DF9300D000D0CDB7DEB7FC
:1003200040E855E260E070E083EA94E00E94BA0F92
:1003300062E172E083EA94E00E94AB1040E251EA8D
:1003400067E070E080E694E00E94F408892B39F4BD
:100350006BE172E083EA94E00E94AB10FFCF60E3B0
:1003600072E083EA94E00E94AB1000E010E0980194
:1003700040E050E060E970E080E694E00E94F6061C
:100380002FEF3FEF40E050EC62E970E080E694E050
:100390000E94460461E080E694E00E94760380E6D5
:1003A00094E00E9431096CE472E083EA94E00E94D8
:1003B000AB1080E694E00E946905892BD1F380E6BA
:1003C00094E00E946A04611571058049910529F441
:1003D00080E694E00E94940306C069E672E083EA36
:1003E00094E00E94AB1010920E0480E694E00E940C
:1003F0006905892B59F080E694E00E94940367E830
:1004000072E083EA94E00E94AB10EFCF00E02FEFA0
:100410003FEF40E050EC62E970E080E694E00E943B
:10042000460462E080E694E00E94760380E694E071
:100430000E94310960EA72E083EA94E00E94AB1006
:1004400010E001E080910F0481112FC0143168F594
:1004500080E694E00E946905892BD1F344E050E0E6
:10046000BE016F5F7F4F80E694E00E94C311CE0112
:1004700001960E94D100611571058105910549F42D
:1004800000930F0465EC72E083EA94E00E94AB10E5
:10049000D9CF24E0129FF0011124E05FFB4F60836D
:1004A0007183828393831F5FCDCF80E1C82E84E068
:1004B000D82EE12CF12CA12EB12CAE14BF0454F196
:1004C00068EE72E083EA94E00E949E104601F60115
:1004D00041915191619171916F0122E030E083EA85
:1004E00094E00E941A116AEF72E083EA94E00E949D
:1004F0009E10F40160817181828193810E941B01B1
:100500006BE373E083EA94E00E94AB10FFEFEF1A15
:10051000FF0AD3CF64E173E083EA94E00E949E1067
:100520004AE050E0612F83EA94E00E9413116AE2EE
:1005300073E083EA94E00E949E1083EA94E00E94B4
:10054000A71062E080E194E00E940001AB01BC01D1
:100550000FEF1FEF2FEF33E080E694E00E94F606E6
:100560000F900F900F900F90DF91CF911F910F91EF
:10057000FF90EF90DF90CF90BF90AF909F908F90C3
:100580000895CF93DF9380E694E00E946905EC0123
:10059000892B09F46FC06DE373E083EA94E00E9455
:1005A0009E1080E694E00E947004882331F067E496
:1005B00073E083EA94E00E949E1080E694E00E943B
:1005C0007304882331F061E573E083EA94E00E94CC
:1005D0009E1066E573E083EA94E00E949E1080E638
:1005E00094E00E946A04AB01BC0120E130E083EAA0
:1005F00094E00E942C1180E694E00E94730488230A
:1006000091F068E673E083EA94E00E949E1080E631
:1006100094E00E9476044AE050E0BC0183EA94E052
:100620000E947B1121C06FE773E083EA94E00E948F
:100630009E104AE050E0BE0183EA94E00E947B11E4
:1006400080E694E00E948C03892B51F080E694E0D0
:100650000E949403682F83EA94E00E94A010F0CFD8
:1006600083EA94E00E94A71083EA94E0DF91CF919F
:100670000C94A710DF91CF91089580E090E0089549
:10068000DC01ED91FC91028CF38DE02D4FEF57E0F2
:1006900009940F931F93DC01ED91FC91068CF78D6B
:1006A000E02D0FEF1FEF2FEF3FE109951F910F9105
:1006B00008950895FC0116868FEF9FEFDC01878770
:1006C000908BA18BB28B148A168A158A108E178A8A
:1006D00081A392A3A3A3B4A316A210A617A212A645
:1006E00011A614A613A681E090E00895CF93DF939E
:1006F0001F92CDB7DEB76983DC01ED91FC910280DA
:10070000F381E02D41E050E0BE016F5F7F4F09951E
:100710000F90DF91CF910895FC0181A592A523A5AB
:1007200034A5821B930B0895CF93DF93EC01E881EE
:10073000F9810084F185E02D0995892B61F08BA565
:100740009CA59C012F5F3F4F3CA72BA7C80FD91F2B
:100750008DA590E002C08FEF9FEFDF91CF910895BC
:10076000CF93DF93EC01E881F9810084F185E02DDE
:100770000995892B39F08BA59CA5C80FD91F8DA58C
:1007800090E002C08FEF9FEFDF91CF910895089521
:10079000FC0175876487089580E090E0089580E00B
:1007A00090E0089580E090E008950C945D100F9320
:1007B0001F93CF93DF93FC0126852223E1F0278945
:1007C000308DE8E0F0E0E21BF30BEA01E417F507F7
:1007D00008F4EF018C01C9014996AE01800F911F09
:1007E0000E94E214F8018789908D8C0F9D1F908FD5
:1007F000878BCE0102C080E090E0DF91CF911F9106
:100800000F910895FC018685882341F0168685891D
:10081000968997FD06C0908F878B03C080E090E09B
:10082000089581E090E00895FC011382128288EE21
:1008300093E0A0E0B0E084839583A683B78380E94A
:1008400093E0918380831586148616868FEF9FEF41
:10085000DC018787908BA18BB28B21E0238B148ADC
:10086000168A158A108E178A81A392A3A3A3B4A314
:1008700015A216A210A617A212A611A614A613A6B8
:1008800040E050E0BA01CF010C94BD110F93FC0180
:1008900041155105610580E27807C0F42930310522
:1008A000ACF481E086874787508B618B728B838B9A
:1008B000048B368B258B108E178A799688E0DF01A2
:1008C0001D928A95E9F781E090E002C080E090E017
:1008D0000F910895FC0161A172A183A194A10895D3
:1008E000FC0185A10895FC0186A10895FC0187A162
:1008F00090A5089520EC33E0FC01318320830C9413
:100900005903CF93DF93EC010E947A04CE01DF916B
:10091000CF910C945D102091A104222399F04FB740
:10092000F8942091A104213059F42DB320939F0411
:100930003DB32091A004209523232DBB4FBF02C0BF
:1009400040939F048CBD9DBD08958EBD00000DB4E5
:1009500007FEFDCF8EB508958091A104882361F034
:100960009FB7F8942091A10480919F04213019F43D
:100970008DBB9FBF08958FBF0895CF93DF93EC0188
:100980000E94140480EC93E09983888380E58DAB0A
:1009900081E08EAB8AE090E098AF8FAB82E090E090
:1009A0009AAF89AF80E094E2A4EFB0E08BAF9CAF48
:1009B000ADAFBEAFDF91CF910895CF93DF93EC0140
:1009C0008DA99EA90E948B0460E08FA90E946A13E2
:1009D00080EC0E94A50461E08FA90E946A130E9426
:1009E000AC048AE090E0DF91CF910C94BF121F938A
:1009F000CF93DF93EC01162F8DA99EA90E948B0443
:100A000060E08FA90E946A1383E00E94A504812FF1
:100A10000E94A50480E00E94A504182F61E08FA920
:100A20000E946A130E94AC04812FDF91CF911F9125
:100A300008950F931F93CF93DF93EC016CE20E9414
:100A4000F7048823A9F0E881F9810488F589E02D6D
:100A5000CE010995892B61F00C851D85E881F9810E
:100A60000084F185E02DCE010995F8010995EBCFC1
:100A7000DF91CF911F910F91089580E694E00C943F
:100A80001905FF920F931F93CF93DF93EC01F62E7E
:100A9000042F122F8DA99EA90E948B0460E08FA9BC
:100AA0000E946A1385E00E94A5048F2D0E94A50470
:100AB000802F0E94A504812F0E94A50461E08FA9C8
:100AC0000E946A13DF91CF911F910F91FF900C94B8
:100AD000AC049F92AF92BF92CF92DF92EF92FF92BF
:100AE0000F931F93CF93DF93EC016CE20E94F70406
:100AF00080FD10C081FD10C08FEF9FEFDC0189A346
:100B00009AA3ABA3BCA31DA21EA21AA619A680E09D
:100B100090E0A0C000E001C001E0102F1295107F0E
:100B200042E6A42EA10E6A2DCE010E94F70483FB9B
:100B3000882780F98DA361E6610FCE010E94F7043A
:100B4000C82E6A2DCE010E94F70498E0C99E60016C
:100B50001124829586958770C82A8DA10D2C000CD2
:100B6000EE08FF0855E6B52EB10E882389F16A2DEF
:100B7000CE010E94F704982E63E6610FCE010E9419
:100B8000F704A82E64E6610FCE010E94F704992DA8
:100B9000937022E1CC0CDD1CEE1CFF1C2A95D1F7D2
:100BA000C82AE92A8A2D90E0982F8827A0E0B0E093
:100BB000C82AD92AEA2AFB2AC9A2DAA2EBA2FCA2F5
:100BC0006B2DCE010E94F70486FB882780F90AC0AE
:100BD000C9A2DAA2EBA2FCA26A2DCE010E94F70400
:100BE000829581708EA36B2DCE010E94F7048F70C9
:100BF00090E098A78FA31CA61BA62EA1222319F074
:100C00001AA619A61AC09AA789A71A596E01EDE269
:100C1000CE0ED11CE12CF12C89A59AA5E816F90677
:100C200064F4612FCE010E94F704F60181936F01F5
:100C3000FFEFEF1AFF0A1F5FEFCF41E050E001C066
:100C4000440F0A95EAF720E06CE2CE010E944105CC
:100C50008FA198A5DF91CF911F910F91FF90EF90F9
:100C6000DF90CF90BF90AF909F9008950F931F9308
:100C7000CF93DF93EC01062F142F8DA99EA90E941C
:100C80008B0460E08FA90E946A1382E00E94A50491
:100C9000802F0E94A504812F0E94A50461E08FA9E6
:100CA0000E946A13DF91CF911F910F910C94AC04B5
:100CB000CF92DF92EF92FF920F931F93CF93DF9328
:100CC000EC017B018A0140E86FE00E9436066FE08C
:100CD000CE010E94F704803809F07DC087E0F82239
:100CE000177040E260E6CE010E94360640E260E600
:100CF000CE010E943606680183E0D594C7948A9598
:100D0000E1F74C2D60E2CE010E9436060295000FFD
:100D1000007E402F61E2CE010E94360640E062E292
:100D2000CE010E94360640E063E2CE010E94360604
:100D300040E260E7CE010E94360640E260E7CE0165
:100D40000E9436064C2D64E2CE010E943606402FEA
:100D500065E2CE010E94360640E066E2CE010E94C6
:100D6000360640E067E2CE010E943606A70193E016
:100D7000559547959A95E1F7042FE294EE0C20EEF5
:100D8000E22210E0402F612FCE010E94360661E082
:100D9000610F4E2DCE010E94360662E0610F40E0E9
:100DA000CE010E94360663E0610F40E0CE010E9452
:100DB00036061C5F183131F740E06FE0CE010E942B
:100DC00036066FE0CE010E94F70421E090E0811129
:100DD00020E0822F02C080E090E0DF91CF911F9150
:100DE0000F91FF90EF90DF90CF9008954F925F9218
:100DF0006F927F928F929F92AF92BF92CF92DF922B
:100E0000EF92FF920F931F93CF93DF9300D000D008
:100E100000D0CDB7DEB79E838D834A015B016801A8
:100E2000790140E86FE00E9436066FE08D819E8177
:100E30000E94F704803809F0BEC08FE1F822D70184
:100E4000C60125E1B595A795979587952A95D1F780
:100E500089839A83AB83BC83D701C6013DE0B695F5
:100E6000A795979587953A95D1F780769927AA27E0
:100E7000BB271E2D13701860182B4D2C5E2C6F2C69
:100E8000772467FC7A9440E460E68D819E810E941D
:100E9000360640E460E68D819E810E9436064981D7
:100EA00060E28D819E810E943606412F61E28D8134
:100EB0009E810E943606442D62E28D819E810E94B1
:100EC00036064C2D63E28D819E810E94360640E4F9
:100ED00060E78D819E810E94360640E460E78D8147
:100EE0009E810E943606498164E28D819E810E9426
:100EF0003606412F65E28D819E810E943606442D83
:100F000066E28D819E810E9436064C2D67E28D81BE
:100F10009E810E9436069FE1B922D501C40155E1A8
:100F2000B595A795979587955A95D1F7E82E8A2D6F
:100F30008370282F2860D501C4016DE0B695A79570
:100F4000979587956A95D1F780769927AA27BB2729
:100F5000F22EF82AD92C10E04E2D612F8D819E8122
:100F60000E94360661E0610F4F2D8D819E810E94A7
:100F7000360662E0610F4D2D8D819E810E943606FE
:100F800063E0610F482D8D819E810E9436061C5FB3
:100F9000183111F740E06FE08D819E810E94360686
:100FA0006FE08D819E810E94F70421E090E0811125
:100FB00020E0822F02C080E090E026960FB6F894E1
:100FC000DEBF0FBECDBFDF91CF911F910F91FF907C
:100FD000EF90DF90CF90BF90AF909F908F907F90D9
:100FE0006F905F904F900895CF93DF93EC0140E8AE
:100FF0006FE00E9436066FE0CE010E94F70421E008
:1010000030E0803811F020E030E0C901DF91CF916D
:101010000895CF93DF93EC0140E46FE00E94360621
:101020006FE0CE010E94F70421E030E0803411F03F
:1010300020E030E0C901DF91CF910895CF93DF9395
:10104000EC0141E06FE00E9436066FE0CE010E94A5
:10105000F70421E030E0813011F020E030E0C901F8
:10106000DF91CF910895CF93DF93EC0140E06FE0E3
:101070000E9436066FE0CE010E94F70421E030E0C6
:10108000882311F020E030E0C901DF91CF9108956D
:101090008F929F92AF92BF92CF92DF92EF92FF9288
:1010A0000F931F93CF93DF93CDB7DEB7C850D140D6
:1010B0000FB6F894DEBF0FBECDBF28E031E0EAE006
:1010C000F1E0DE01119601900D9221503040D9F7E8
:1010D000FC01C3ACD4ACE5ACF6ACFE01319620E02B
:1010E00030E080809180A280B3808C149D04AE0497
:1010F000BF0409F054C084809580A680B780841610
:101100009506A606B70609F04AC08C018BE0829FBF
:101110007001839FF00C1124F8E0EF0EF11C81E0C8
:1011200090E08C0F9D1FE80EF91EF70140816AE2E6
:10113000C8010E943606F701418169E2C8010E9498
:101140003606F701428168E2C8010E94360643E094
:101150006BE2C8010E94360640E06CE0C8010E94C4
:10116000360640E06DE0C8010E94360640E660E6C3
:10117000C8010E94360640E660E7C8010E943606B4
:1011800040E06FE0C8010E9436066FE0C8010E948F
:10119000F70421E090E0811120E0822F09C02F5F49
:1011A0003F4F3B962831310509F09BCF80E090E01E
:1011B000C85FDE4F0FB6F894DEBF0FBECDBFDF9124
:1011C000CF911F910F91FF90EF90DF90CF90BF9044
:1011D000AF909F908F90089580E694E00C94BD04AA
:1011E00080E694E00C947A04CF92DF92EF92FF9223
:1011F000CF93DF93EC016A017B010E945A0361E007
:101200008FA90E942E130E94480ACE010E94DD047D
:1012100040E86FE0CE010E9436066FE0CE010E94EA
:10122000F704803859F4B701A601CE01DF91CF91C0
:10123000FF90EF90DF90CF900C94480880E090E012
:10124000DF91CF91FF90EF90DF90CF900895CF93F3
:10125000DF93EC010E947E0ACE01DF91CF910C94C6
:10126000C703EF92FF920F931F93CF93DF93EC018D
:101270000E940204009709F4B4C08B894F855889F5
:1012800069897A898823B9F195E1759567955795AC
:1012900047959A95D1F761E3CE010E9436068F8576
:1012A0009889A989BA89AC01BD0122E17595679534
:1012B000579547952A95D1F735E0440F551F661F7E
:1012C000771F3A95D1F78A2F8370482B486062E3E5
:1012D000CE010E9436064F85588969897A89452F43
:1012E000562F672F772767FD7A9563E3CE010E941B
:1012F00036064F8519C083E07595679557954795D4
:101300008A95D1F761E3CE010E9436064F8542955A
:10131000440F407E62E3CE010E94360640E063E364
:10132000CE010E94360640E064E3CE010E943606FC
:101330008C894F89882331F0406465E3CE010E9497
:1013400036061AC065E3CE010E9436067E0189E1A9
:10135000E80EF11C00E010E08F89988D081719073E
:101360005CF4F70141917F0166E3600FCE010E94BA
:1013700036060F5F1F4FF0CF48E060E3CE010E94BA
:10138000360610E060E3CE010E94F70483FF10C030
:1013900060E3CE010E94F70484FF07C020E140E132
:1013A0006FE0CE010E94410511E00E944C10EACF8F
:1013B000112331F020E040E16FE0CE010E944105B1
:1013C00020E044E06CE2CE010E94410560E3CE01E2
:1013D0000E94F704807731E020E009F030E0832FAD
:1013E000922FDF91CF911F910F91FF90EF90089571
:1013F0000F931F93CF93DF93EC018B010E94C803DF
:1014000060E089AD0E942E1389AD9AAD012B11F1D8
:101410008230910521F0039721F08FEF03C080E027
:1014200001C081E00E94920A89AD9AAD8230910597
:1014300021F0039721F08FEF03C080E001C081E02D
:1014400040E050E06DE375E0DF91CF911F910F9187
:101450000C94E9118230910521F0039721F08FEF70
:1014600003C080E001C081E00E94091289AD9AADFD
:101470008230910521F0039721F08FEF03C080E0C7
:1014800001C081E0DF91CF911F910F910C94AE0AC2
:10149000CF93CFB7F8948091A204811127C0ECE1DB
:1014A000F1E08491E8E0F1E09491E82FF0E0EE0FB4
:1014B000FF1FE05DFE4FA591B491EC91E92321F46B
:1014C00061E08AE00E946A1361E08AE00E942E13C4
:1014D0008CB580618CBD8CB580648CBD61E08DE085
:1014E0000E942E1361E08BE00E942E138091A204D3
:1014F0008F5F8093A204CFBFCF9108959FB7F894D8
:101500008091A204882319F081508093A2048091D5
:10151000A204811105C08CB58F7B8CBD1092A104F3
:101520009FBF08959FB7F894882349F0813011F444
:1015300082E006C082E08093A10480E001C081E0E7
:101540002091A004822B8093A0048091A10481119A
:1015500003C081E08093A1049FBF08959091A104EE
:101560009230B1F02FB7F894882321F0813021F424
:1015700082E003C081E001C080E080959091A004EA
:1015800089238093A004811102C01092A1042FBF6F
:1015900008955058BB27AA270E94E10A0C94B90B62
:1015A0000E94AB0B38F00E94B20B20F039F49F3F41
:1015B00019F426F40C94A80B0EF4E095E7FB0C94B8
:1015C000A20BE92F0E94CA0B58F3BA1762077307E0
:1015D0008407950720F079F4A6F50C94EC0B0EF433
:1015E000E0950B2EBA2FA02D0B01B90190010C0133
:1015F000CA01A0011124FF27591B99F0593F50F44B
:10160000503E68F11A16F040A22F232F342F4427A2
:10161000585FF3CF469537952795A795F04053959A
:10162000C9F77EF41F16BA0B620B730B840BBAF06A
:101630009150A1F0FF0FBB1F661F771F881FC2F7D5
:101640000EC0BA0F621F731F841F48F487957795E9
:101650006795B795F7959E3F08F0B0CF9395880FA3
:1016600008F09927EE0F9795879508950E94D20B61
:1016700088F09F5798F0B92F9927B751B0F0E1F053
:10168000660F771F881F991F1AF0BA95C9F714C003
:10169000B13091F00E94EC0BB1E008950C94EC0B8A
:1016A000672F782F8827B85F39F0B93FCCF386953C
:1016B00077956795B395D9F73EF490958095709599
:1016C00061957F4F8F4F9F4F0895E89409C097FB16
:1016D0003EF490958095709561957F4F8F4F9F4F09
:1016E0009923A9F0F92F96E9BB279395F69587954D
:1016F00077956795B795F111F8CFFAF4BB0F11F410
:1017000060FF1BC06F5F7F4F8F4F9F4F16C08823B6
:1017100011F096E911C0772321F09EE8872F762FEC
:1017200005C0662371F096E8862F70E060E02AF02D
:101730009A95660F771F881FDAF7880F9695879519
:1017400097F9089597F99F6780E870E060E0089541
:101750009FEF80EC089500240A94161617061806C9
:101760000906089500240A941216130614060506A5
:101770000895092E0394000C11F4882352F0BB0F36
:1017800040F4BF2B11F460FF04C06F5F7F4F8F4F99
:101790009F4F089557FD9058440F551F59F05F3FD4
:1017A00071F04795880F97FB991F61F09F3F79F083
:1017B00087950895121613061406551FF2CF469505
:1017C000F1DF08C0161617061806991FF1CF869587
:1017D0007105610508940895E894BB27662777276B
:1017E000CB0197F908950E94820C08F48FEF0895B9
:1017F000FA01EE0FFF1F309621053105A1F16115A9
:10180000710561F48038BFE39B0749F16894903813
:10181000810561F08038BFEF9B0741F099234AF5BD
:10182000FF3FE1053105210519F1E8940894E7959A
:10183000D901AA2329F4AB2FBE2FF85FD0F310C033
:10184000FF5F70F4A695E0F7F73950F019F0FF3A12
:1018500038F49F779F930DD00F9007FC9058089510
:1018600046F00C94A80B60E070E080E89FE30895D8
:101870004FE79F775F934F933F932F930E94170DEE
:101880002F913F914F915F910E94930D0C94500CBA
:1018900029F416F00C94A20B0C94EC0B0C94A80BEE
:1018A0000E94D20BA8F39638A0F707F80F92E8949D
:1018B0002BE33AEA48EB5FE70E94A90D0F920F92E3
:1018C0000F924DB75EB70F920E945F0DE8E6F0E011
:1018D0000E94A60C4F915F91EF91FF91E595EE1F4D
:1018E000FF1F49F0FE57E0684427EE0F441FFA95AA
:1018F000E1F74195550B0E94D90C0F9007FE0C940F
:10190000CD0C0895990F0008550FAA0BE0E8FEEFE3
:1019100016161706E807F907C0F012161306E407B3
:10192000F50798F0621B730B840B950B39F40A26AC
:1019300061F0232B242B252B21F408950A2609F48A
:10194000A140A6958FEF811D811D0895DF93CF9350
:101950001F930F93FF92EF92DF927B018C016894AB
:1019600006C0DA2EEF010E94A60DFE01E894A591B3
:101970002591359145915591A6F3EF010E94E10A19
:10198000FE019701A801DA9469F7DF90EF90FF90CC
:101990000F911F91CF91DF9108959B01AC0160E001
:1019A00070E080E89FE30C94000E0C94A20B0C9462
:1019B000720E0E94D20BD8F39923C9F3940F511DD4
:1019C000A3F39150504094F059F0882332F0660F01
:1019D000771F881F91505040C1F79E3F51052CF74B
:1019E000880F911D9695879597F908955F3FACF004
:1019F000983E9CF0BB27869577956795B79508F438
:101A0000B1609395C1F7BB0F58F711F460FFE8CFB1
:101A10006F5F7F4F8F4F9F4FE3CF0C94ED0B16F00E
:101A20000C94720E0C94A80B68940C94A20B0E9458
:101A3000D20BA8F39923C1F3AEF3DF93CF931F9397
:101A40000F93FF92C92FDD2788232AF02197660F75
:101A5000771F881FDAF720E030E040E85FEB9FE374
:101A6000883920F0803E38F021968F770E94CA0A8C
:101A7000E0E9F0E004C00E94CA0AEDEBF0E00E9449
:101A8000A60C8B01BE01EC01FB2E6F5771097595F9
:101A9000771F880B990B0E94670B28E132E741E31F
:101AA0005FE30E94A60DAF2D9801AE01FF900F914C
:101AB0001F91CF91DF910E94E10A0C94B90BFA01BA
:101AC000DC01AA0FBB1F9B01AC01BF5728F42227E2
:101AD00033274427507820C0B75190F4AB2F00240F
:101AE000469537952795011CA395D2F3002071F0F8
:101AF000220F331F441FB395DAF30ED00C94C90A9A
:101B000061307105A0E88A07B94630F49B01AC0149
:101B10006627772788279078309621F020833183B5
:101B20004283538308950E94A60D0C94B90B0E9422
:101B3000AB0B38F00E94B20B20F0952311F00C94FF
:101B4000A20B0C94A80B11240C94ED0B0E94CA0B51
:101B500070F3959FC1F3950F50E0551F629FF00100
:101B6000729FBB27F00DB11D639FAA27F00DB11D19
:101B7000AA1F649F6627B00DA11D661F829F2227A2
:101B8000B00DA11D621F739FB00DA11D621F839F29
:101B9000A00D611D221F749F3327A00D611D231FFF
:101BA000849F600D211D822F762F6A2F11249F574D
:101BB00050409AF0F1F088234AF0EE0FFF1FBB1F50
:101BC000661F771F881F91505040A9F79E3F51050F
:101BD00080F00C94A20B0C94ED0B5F3FE4F3983E65
:101BE000D4F3869577956795B795F795E7959F5FB9
:101BF000C1F7FE2B880F911D9695879597F908954B
:101C00000E94140E0C94B90B0E94B20B58F00E9463
:101C1000AB0B40F029F45F3F29F00C94A20B51115B
:101C20000C94ED0B0C94A80B0E94CA0B68F399233B
:101C3000B1F3552391F3951B550BBB27AA276217C8
:101C40007307840738F09F5F5F4F220F331F441FD5
:101C5000AA1FA9F335D00E2E3AF0E0E832D0915009
:101C60005040E695001CCAF72BD0FE2F29D0660FF6
:101C7000771F881FBB1F261737074807AB07B0E839
:101C800009F0BB0B802DBF01FF2793585F4F3AF03F
:101C90009E3F510578F00C94A20B0C94ED0B5F3F26
:101CA000E4F3983ED4F3869577956795B795F795C5
:101CB0009F5FC9F7880F911D9695879597F90895AD
:101CC000E1E0660F771F881FBB1F62177307840749
:101CD000BA0720F0621B730B840BBA0BEE1F88F758
:101CE000E09508959F3F31F0915020F487957795C6
:101CF0006795B795880F911D9695879597F90895E3
:101D0000FC01918D228D892F90E0805C9F4F821B7A
:101D100091098F7399270895FC01918D828D9817F1
:101D200031F0828DE80FF11D858D90E008958FEFE1
:101D30009FEF0895FC01918D828D981761F0828D3F
:101D4000DF01A80FB11D5D968C91928D9F5F9F73EF
:101D5000928F90E008958FEF9FEF0895FC01538DCF
:101D6000448D252F30E0842F90E0821B930B541775
:101D700010F0CF9608950197089585E190E1892BA1
:101D800049F080E090E0892B29F00E941510811124
:101D90000C9400000895FC01848DDF01A80FB11D93
:101DA000A35ABF4F2C91848D90E001968F73992791
:101DB000848FA689B7892C93A089B1898C9180647E
:101DC0008C93938D848D981306C00288F389E02D3F
:101DD00080818F7D80830895EF92FF920F931F93F0
:101DE000CF93DF93EC0181E0888F9B8D8C8D9813CE
:101DF00005C0E889F989808185FD24C0F62E0B8D08
:101E000010E00F5F1F4F0F731127E02E8C8DE8122B
:101E10000CC00FB607FCFACFE889F989808185FFED
:101E2000F5CFCE010E94CB0EF1CF8B8DFE01E80FD6
:101E3000F11DE35AFF4FF0820B8FEA89FB89808105
:101E4000806207C0EE89FF896083E889F989808113
:101E50008064808381E090E0DF91CF911F910F91AA
:101E6000FF90EF900895CF93DF93EC01888D882346
:101E7000C9F0EA89FB89808185FD05C0A889B989F7
:101E80008C9186FD0FC00FB607FCF5CF808185FFD2
:101E9000F2CFA889B9898C9185FFEDCFCE010E9440
:101EA000CB0EE7CFDF91CF910895CF92DF92EF92E3
:101EB000FF921F93CF93DF93EC016A017B01122FF6
:101EC000E889F98982E080834115514E61057105E9
:101ED000B1F060E079E08DE390E0A70196010E9407
:101EE0009913DA01C9010197A109B109B695A7951E
:101EF000979587959C01211580E13807A8F0E8891E
:101F0000F989108260E874E88EE190E0A7019601FB
:101F10000E949913DA01C9010197A109B109B69587
:101F2000A795979587959C01EC85FD853083EE8577
:101F3000FF852083188EEC89FD891083EA89FB894F
:101F4000808180618083EA89FB89808188608083C9
:101F5000EA89FB89808180688083EA89FB898081A6
:101F60008F7D8083DF91CF911F91FF90EF90DF9065
:101F7000CF90089526E00C94550F1F920F920FB644
:101F80000F9211242F938F939F93EF93FF93E091E0
:101F9000B304F091B4048081E091B904F091BA04E3
:101FA00082FD12C090818091BC048F5F8F7320915D
:101FB000BD04821751F0E091BC04F0E0ED55FB4FF9
:101FC000958F8093BC0401C08081FF91EF919F9118
:101FD0008F912F910F900FBE0F901F9018951F9209
:101FE0000F920FB60F9211242F933F934F935F934D
:101FF0006F937F938F939F93AF93BF93EF93FF93D1
:1020000083EA94E00E94CB0EFF91EF91BF91AF91D4
:102010009F918F917F916F915F914F913F912F9100
:102020000F900FBE0F901F90189583EA94E00E94C6
:10203000800E21E0892B09F420E0822F0895E3EA45
:10204000F4E01382128288EE93E0A0E0B0E0848393
:102050009583A683B78380EF93E09183808385EC9B
:1020600090E09587848784EC90E09787868780EC62
:1020700090E0918B808B81EC90E0938B828B82EC53
:1020800090E0958B848B86EC90E0978B868B118EFD
:10209000128E138E148E0895089508950E94CA1208
:1020A0000E944D100E948001CDEBDEE00E94C10233
:1020B0002097E1F30E94BD0EF9CF0C945914CF92F2
:1020C000DF92EF92FF920F931F93CF93DF936C01F8
:1020D0007A018B01C0E0D0E0CE15DF0581F0D80198
:1020E0006D918D01D601ED91FC910190F081E02D73
:1020F000C6010995892B11F02196EECF7E01C7010B
:10210000DF91CF911F910F91FF90EF90DF90CF90D3
:1021100008956115710579F0FB0101900020E9F740
:102120003197AF01461B570BDC01ED91FC9102800A
:10213000F381E02D099480E090E008950C948910DB
:10214000DC01ED91FC910190F081E02D09946EEF9E
:1021500073E00C9489100F931F93CF93DF93EC01DE
:102160000E9489108C01CE010E94A710800F911F40
:10217000DF91CF911F910F9108958F929F92AF920F
:10218000BF92EF92FF920F931F93CF93DF93CDB740
:10219000DEB7A1970FB6F894DEBF0FBECDBF7C01AE
:1021A000FA01CB0119A2223008F42AE08E010F5D5A
:1021B0001F4F822E912CA12CB12CBF01A50194019F
:1021C0000E949913F901CA01015011096A3010F4F3
:1021D000605D01C0695CD8016C93232B242B252BF7
:1021E00061F7B801C7010E948910A1960FB6F89453
:1021F000DEBF0FBECDBFDF91CF911F910F91FF903A
:10220000EF90BF90AF909F908F900895211531056A
:1022100041F4DC01ED91FC910190F081E02D642FFF
:1022200009940C94BD109A01462F50E060E070E0D4
:102230000C9406110F931F93CF93DF93EC010E9430
:1022400006118C01CE010E94A710800F911FDF9113
:10225000CF911F910F910895CF92DF92EF92FF924D
:102260000F931F93CF93DF932115310581F4DC0188
:10227000ED91FC910190F081E02D642FDF91CF91E1
:102280001F910F91FF90EF90DF90CF9009942A302B
:10229000310501F577FF1DC06A017B01EC016DE29C
:1022A0000E94A0108C0144275527BA014C195D09E2
:1022B0006E097F092AE0CE010E94BD10800F911F98
:1022C000DF91CF911F910F91FF90EF90DF90CF9012
:1022D00008952AE0DF91CF911F910F91FF90EF9029
:1022E000DF90CF900C94BD109A01AB01770F660B75
:1022F000770B0C942C110F931F93CF93DF93EC016A
:102300000E9474118C01CE010E94A710800F911FB2
:10231000DF91CF911F910F9108950F931F93CF934A
:10232000DF93EC010E94B312688779878A879B87C5
:10233000E881F9810284F385E02DCE01099597FFAC
:1023400017C00E94B312088519852A853B85DC01D8
:10235000CB01801B910BA20BB30B0C811D812E8135
:102360003F8180179107A207B30710F38FEF9FEF0C
:10237000DF91CF911F910F910895FC014483558304
:10238000668377830895CF92DF92EF92FF920F9347
:102390001F93CF93DF936C017A018B01C0E0D0E0F3
:1023A000CE15DF0559F0C6010E948D1197FD05C0BD
:1023B000F80181938F012196F3CF7E01C701DF9150
:1023C000CF911F910F91FF90EF90DF90CF900895E4
:1023D00008958230E8F4E82FF0E0EE0FFF1FEA5F87
:1023E000FE4F71836083813041F0809169008C7F62
:1023F000482B40936900E89A089580916900837F93
:10240000440F551F440F551F482B40936900E99A0C
:102410000895823078F4813011F0E89801C0E9988D
:10242000E82FF0E0EE0FFF1FEA5FFE4F88EE91E12C
:102430009183808308951F920F920FB60F921124FB
:102440002F933F934F935F936F937F938F939F93BC
:10245000AF93BF93EF93FF93E0910601F0910701D3
:102460000995FF91EF91BF91AF919F918F917F91CE
:102470006F915F914F913F912F910F900FBE0F90F1
:102480001F9018951F920F920FB60F9211242F9341
:102490003F934F935F936F937F938F939F93AF93EC
:1024A000BF93EF93FF93E0910801F0910901099523
:1024B000FF91EF91BF91AF919F918F917F916F911C
:1024C0005F914F913F912F910F900FBE0F901F90F2
:1024D00018951F920F920FB60F9211242F933F93CE
:1024E0008F939F93AF93BF93809141059091420545
:1024F000A0914305B09144053091400523E0230F9E
:102500002D3720F40196A11DB11D05C026E8230F2B
:102510000296A11DB11D2093400580934105909323
:102520004205A0934305B0934405809145059091E1
:102530004605A0914705B09148050196A11DB11D22
:102540008093450590934605A0934705B0934805B1
:10255000BF91AF919F918F913F912F910F900FBE9F
:102560000F901F9018952FB7F894609141057091C6
:10257000420580914305909144052FBF0895823014
:10258000910538F0880F991F880F991F05970197BB
:10259000F1F70895789484B5826084BD84B5816034
:1025A00084BD85B5826085BD85B5816085BDEEE65B
:1025B000F0E0808181608083E1E8F0E0108280813A
:1025C00082608083808181608083E0E8F0E08081A8
:1025D00081608083E1EBF0E0808184608083E0EBC8
:1025E000F0E0808181608083EAE7F0E080818460B0
:1025F000808380818260808380818160808380810C
:10260000806880831092C1000895833081F028F49F
:10261000813099F08230A1F008958730A9F0883098
:10262000B9F08430D1F4809180008F7D03C0809117
:1026300080008F7780938000089584B58F7702C0E3
:1026400084B58F7D84BD08958091B0008F7703C0DD
:102650008091B0008F7D8093B0000895CF93DF9379
:1026600090E0FC01E250FF4F2491FC01EE5EFE4F32
:102670008491882361F190E0880F991FFC01E05D4F
:10268000FE4FC591D491FC01EA5DFE4FA591B49136
:10269000611109C09FB7F8948881209582238883AF
:1026A000EC912E230BC0623061F49FB7F8948881BF
:1026B000322F309583238883EC912E2B2C939FBF50
:1026C00006C08FB7F894E8812E2B28838FBFDF9147
:1026D000CF9108951F93CF93DF93282F30E0F90116
:1026E000E651FF4F8491F901E250FF4FD491F90177
:1026F000EE5EFE4FC491CC23C1F0162F81110E94D3
:102700000513EC2FF0E0EE0FFF1FEA5DFE4FA591E1
:10271000B4919FB7F894111104C08C91D095D8232F
:1027200002C0EC91DE2BDC939FBFDF91CF911F9114
:102730000895A1E21A2EAA1BBB1BFD010DC0AA1F02
:10274000BB1FEE1FFF1FA217B307E407F50720F01A
:10275000A21BB30BE40BF50B661F771F881F991F95
:102760001A9469F760957095809590959B01AC01DE
:10277000BD01CF010895EE0FFF1F0590F491E02DEC
:1027800009940F931F93CF93DF938230910510F438
:1027900082E090E0E0914B05F0914C0520E030E0C4
:1027A000A0E0B0E0309719F140815181028113819E
:1027B00048175907C8F08417950769F4109731F046
:1027C00012960C93129713961C9327C000934B05F7
:1027D00010934C0522C02115310519F042175307FB
:1027E00018F49A01BD01EF01DF01F801DBCF2115DB
:1027F0003105F9F0281B390B2430310580F48A812A
:102800009B816115710521F0FB019383828304C0D4
:1028100090934C0580934B05FE01329644C0FE0117
:10282000E20FF31F8193919322503109398328835A
:102830003AC02091490530914A05232B41F420915B
:1028400002013091030130934A05209349052091FC
:102850000001309101012115310541F42DB73EB73A
:102860004091040150910501241B350BE09149056D
:10287000F0914A05E217F307A0F42E1B3F0B28172F
:10288000390778F0AC014E5F5F4F2417350748F0E9
:102890004E0F5F1F50934A054093490581939193D2
:1028A00002C0E0E0F0E0CF01DF91CF911F910F91E6
:1028B0000895CF93DF93009709F481C0FC0132970C
:1028C00013821282A0914B05B0914C05109781F4B0
:1028D00020813181820F931F2091490530914A0553
:1028E0002817390751F5F0934A05E093490567C069
:1028F000ED0120E030E0CE17DF0740F44A815B8134
:102900009E0141155105F1F0EA01F5CFD383C28351
:1029100040815181840F951FC817D90759F48881C8
:102920009981840F951F0296918380838A819B8170
:10293000938382832115310529F4F0934C05E093AC
:102940004B053DC0E901FB83EA8349915991C40FCE
:10295000D51FEC17FD0761F480819181840F951FCD
:102960000296E90199838883828193819B838A837C
:10297000E0E0F0E012968D919C911397009719F08A
:10298000FD01DC01F7CF8D919C9111979D012E5F88
:102990003F4F820F931F2091490530914A05281718
:1029A000390769F4309729F410924C0510924B05C1
:1029B00002C013821282B0934A05A0934905DF91A9
:1029C000CF910895FB01DC0102C001900D924150AE
:1029D0005040D8F7089510E0CFE9D0E004C0FE01E0
:1029E0000E94BB132196C03AD107C9F7F894FFCFD4
:1029F00000004D052000E811E81100127A00404265
:102A00000F0000800000127A0020A1070000900251
:102A100000127A0090D0030000B10500127A004045
:102A20000D030000B40600127A0048E8010001B16D
:102A30000500127A00A086010001B40600127A0097
:102A40008038010001BF0700127A0050C300000364
:102A5000B40600127A00409C000003BF0700127AFF
:102A600000204E000007BF0700127A001027000068
:102A70000FBF0700127A00881300001FBF07002451
:102A8000F40040420F0000D0820024F40020A1078F
:102A90000000F0860024F40090D0030041F185008E
:102AA00024F400400D030001FA870024F40048E8F4
:102AB000010003F0860024F400A086010003FA87D9
:102AC0000024F4008038010003FF870024F4005044
:102AD000C3000007FA870024F400409C000007FFB1
:102AE000870024F400204E00000FFF870024F4002C
:102AF000102700001FFF870024F400881300003F08
:102B0000FF8743414E204E6F6465005374617274B9
:102B1000696E672043414E206661696C65642100DF
:102B200043616E204E6163687269636874207769DF
:102B3000726420676573656E6465740043616E201E
:102B40004E6163687269636874207775726465208A
:102B5000676573656E646574004461732050616BD2
:102B60006574206861742065696E652066616C73A8
:102B70006368652049440044756D6D79204E61633A
:102B8000687269636874207765676C6573656E0049
:102B9000446965204C6973746520616C6C657220B2
:102BA0007A752062656C6175736368656E64656EC5
:102BB0002049447300556562657274726167756E71
:102BC000672064657220554944204C697374652000
:102BD0006265656E64657400417573676162652046
:102BE00041726475696E6F3A200041757367616266
:102BF0006520656967656E652046756E6B74696FE3
:102C00006E3A200045732077757264656E20696E98
:102C100073676573616D6D7420002049447320757E
:102C20006562657274726167656E2E20005265631D
:102C300065697665642000657874656E64656420F6
:102C40000052545220007061636B65742077697480
:102C5000682069642030780020616E64207265719C
:102C6000756573746564206C656E677468200020F8
:102C7000616E64206C656E6774682000000000005F
:102C80007603D7033D03C7038C039403B0035A03B1
:102C9000C7030204D203C8034003CC034903CF0394
:102CA000D203D203D203D2035903D503000000009C
:102CB0007603D7033D03C7038C039403B003F408E2
:102CC000270931096905F809400358064903F60642
:102CD000F40709081E0833087A0481040000000084
:102CE000EC0E5F10AE0E330F800E9A0E8C0E0D0A96
:0E2CF000006E616E00696E66006F7666000011
:00000001FF
